:08000000F00F040000000000F5
:080034000007000000020000BB
:040060002E0200006C
:0400A00070020000EA
:100400004200F8003600F8003200F800801F780043
:10041000200020000C000900B01F780034918000FB
:100420006224E100020032002852E20002003A0099
:1004300010C0B30022F2B7008480A900A001200000
:100440000C0009004F1078004F0078003200F900CE
:100450003600F9004200F900004006004200F800B2
:100460003600F8003200F800801F780020002000DD
:100470000C000900B01F780085C0A900A001200071
:100480000C0009004F1078004F0078003200F9008E
:100490003600F9004200F90000400600851F780090
:1004A00005B024009E010900000000008502E9005B
:1004B00003003A005A28EF00000020000600370031
:1004C0003202AE00F7FF37003202F8005A08F90096
:1004D000B01180003222A900CF027800000006008F
:1004E0004200F8003600F8003200F800801F780063
:1004F000200020000C000900B01F78004E0202000E
:100500000000000061E9B70010C0B30024F2B7009A
:1005100087C0A900A00120000C0009004F1078003E
:100520004F0078003200F9003600F9004200F9006F
:1005300000400600851F7800C50020000300090068
:10054000B51F78000202B80003F0A60002003700D1
:100550000383B900010037000303B8004200A9007B
:100560008502430060844B0001F0A60002003700C2
:10057000028BB90001003700020BB80085024B0066
:1005800008844B000980B000038BB90008044B00BD
:1005900087834C0087017800080178008500780087
:1005A000040078002501200003000900CF12780024
:1005B000CF02780000000600851F7800C5002000EB
:1005C00003000900B51F780000027800810278005E
:1005D00002037800830378000000EB008000EB004A
:1005E0000001EB008001EB000800A10007F0A6006D
:1005F000050037000600A0000402EA008582EA0038
:100600000683EA008783EA0085046A0002003A0054
:1006100087046B0014003200610D20000270A700F7
:10062000090037004200A9000482D2008582D2006E
:100630000683D2008783D2000080D2000281D200DC
:100640008100E900F5FF3A000180FD004200A900A9
:100650008180D30001F0A1000270A10081406900F7
:100660000600A70001F0A0002501200003000900FA
:10067000CF127800CF02780000000600851F7800B6
:10068000C500200004000900B51F780000027800B2
:100690008102780083037800020378004200A900F9
:1006A0004220A9008180D2000180FD00F10FB2003C
:1006B0000100E0004B0032004200A9004220A900E6
:1006C0008381D2000380FD00F30FB2000300E0003D
:1006D000440032000080FB0001C0410004003100F2
:1006E000F007B1003F0032003E0039000200370041
:1006F0001048B0003B00310007856A004200A900A5
:100700004220A900F50FB2000570A0004200A90028
:10071000F70FB2000770A0000621B800062CB80041
:1007200083014C00890078004200AF008100E8009E
:100730004200A900043CB80083014C0081804C00B9
:10074000072CB80081004C000000E8000100E00028
:100750004220AF0001003700030037000300E00033
:100760004220AF000500370001F0A700030037006A
:100770008381D2008180D2000000E900010178006D
:100780004200A9000370A6000900370007F02F00FF
:10079000878161000310B000600149000200E000A1
:1007A00003003A000300E00001003A000000E80006
:1007B0000080FD004200A9004220A9008080D300F3
:1007C0000AF0A70001F0A00002F0A1000280FD00E5
:1007D000814069000380FD00034178000200780039
:1007E0000300370000002000010020000000370057
:1007F0004501200004000900CF127800CF027800E4
:1008000000000600851F7800C500200003000900D5
:10081000B51F78008004EB00080028004300AF00FB
:1008200083016C000000E00003003A00FAFF27009B
:100830000A8560004220AE00010578008A856900C3
:100840000103780083037800030678004220A900A2
:100850004200A9000683D2000680FD00F60FB20018
:100860000600E000A10032004220A9004200A900D9
:100870008783D2000780FD00F70FB2000700E00079
:100880009F0032004220A9004200A9000638E10082
:100890009C003200A30033000900A1000910A00051
:1008A0000684530007037800F10FB2000170A00026
:1008B000F30FB2000370A000870220000838E100A7
:1008C000110033004220A9004200A9008180D3001A
:1008D0000080D3000804E900FAFF3A000D00370059
:1008E000870220000838E100090033004220A900F7
:1008F0004200A9008381D3000281D3000804E900EB
:10090000FAFF3A000F0037000200780083007800F9
:10091000430037000BF0A600110037000940A70084
:100920008C0578000000EA000200320081C0EA0075
:10093000010037008100EA000940A7002B003700C2
:10094000070037000BF0A600050037000201EA009F
:100950000200320083C1EA00010037008301EA008F
:10096000F50FB2004220A9004200A9000200400099
:1009700083C048004200AF000930A0000900A70072
:10098000090037000910A700010037000B003700ED
:100990000BF0A700150037000930A7002900370029
:1009A0000960A0001E0037000BF0A7000F00370001
:1009B0000930A70023003700190037000920A100E3
:1009C0000BF0A700040037008A0578000930A70063
:1009D0001C003700360037000940A00001C8B200F3
:1009E0000170A700CDFF37008A057800F10FB20033
:1009F000810370000A0032000170A7000800370070
:100A00004220A9004200A9000080D2008180D200CB
:100A10000603E9004220AF0031003700F6FF37003F
:100A20000900A7008A0578000910A7008C05780046
:100A30000950A6001A0037000AF0A7000080A000A5
:100A40001B0037004200A80081C0D3000080D30003
:100A50004200AF000950A0000603E8002000320069
:100A60000950A600080037000000E80006003A0020
:100A70008140E80004003A0081C0D3000080D30028
:100A80000603E800160032000900A7008A05780076
:100A90000910A7008C0578004220AF001000370035
:100AA0000960A7008A0578000970A7008C05780006
:100AB00001017000230032000170A1000680FD00DA
:100AC0004220A9004200A9000683D30081006B00E8
:100AD00001F0A0000BF0A60001F0A1001900370002
:100AE0000000200001002000160037000AF0A700D7
:100AF00083016C0002007800830078001100370049
:100B000010003700F30FB2000370A000F10FB20025
:100B10000170A0000BF0A7000370A1000920A00045
:100B200088FF370007045300F10FB2000170A000E6
:100B3000F30FB2000370A0000910A1000900A0008B
:100B400067FF37002501200003000900CF1278005D
:100B5000CF027800000006000001780081017800D3
:100B6000014078000080FD0000F0A0008180D200EC
:100B70000180FD008180FB00E408200081405200DC
:100B8000060032000000E000040032004200A9002C
:100B90000080D3008100E900FAFF3A0003F0A600CC
:100BA000020037000000EA000000370000000600E5
:100BB000851F7800861F7800140020000960EF0070
:100BC0001292BF00A19080000402E8000402E90034
:100BD000030032000000D0008180D200FBFF37000C
:100BE0006417210084024000D4968000840298009B
:100BF0001212F8000E12F9001412F8001012F90087
:100C00000A32EF000C32EF006A29EF006C29EF0086
:100C1000649080006020E10041003E000400390043
:100C200054908000F30320000418E1003C003600DB
:100C3000140020000960EF000E92BF008190800038
:100C40000402E8000402E900030032000000D000C2
:100C50008180D200FBFF37006417210004004000B0
:100C60000002780014007800800278000003EB0096
:100C700005F0A7000083EB00140020000960EF00DE
:100C80000A92BF00619080000402E8000402E900BB
:100C9000030032000000D0008180D200FBFF37004B
:100CA000A422210004004000000278001400780013
:100CB0008000EB0000F0A7008080EB0000017800CE
:100CC0008101780005007800860078009A02020011
:100CD000000000006A29B400010078006C89B400AB
:100CE0006CA9B70074908000F483B20005003A004C
:100CF0001012E20003003A000E32EF001032EF0053
:100D0000030037000E32EC004220AF001032EC003E
:100D10000A32EC004220AF000C32EC00BCFF37007E
:100D20006A89BF00614B80008001EB0001F0A700E1
:100D30008081EB0003017800748B80000400500078
:100D4000848B800084805800948B800004015900BB
:100D5000A48B800084815900DC02020000000000A6
:100D6000DCB2B700F1968800DC92BF00F1968000FB
:100D700012908000239080003E03020000000000DB
:100D8000E0B2B700119788004300A900E092BF00CD
:100D90001197800002002000E32F240002040200CB
:100DA00000000000E4B2B70031978800E492BF0071
:100DB00031978000AC05020000000000E8F2B700A7
:100DC0001212E20006003A001412E20004003A0097
:100DD000F4032000949088001432EF0003003700E1
:100DE0001232ED004200AE001432ED00E8D2BF0036
:100DF00000E0B7004F037800CF0278000000060043
:100E00004200F8003600F8003200F800801F780039
:100E1000200020000C000900B01F7800C9C2A90002
:100E2000CDC2AA00149180004822DE006124E100B6
:100E3000020032002852E20008003A002003A90014
:100E40002023A8002003AE00FEFF37001E32EC0076
:100E50004220AF002032EC0046003700D432EF00D1
:100E60002752E20007003A009480A9000100240004
:100E700002002000FD0109008058EB0010C0B30003
:100E800027F2B700349180006224E1000A003200AA
:100E90002003A9002023A8002003AE00FEFF370096
:100EA00005188000D5968800D805020000000000D3
:100EB000D4F2B700D572EF00D492BF006609E30008
:100EC00007003A002652E20005003A00D412F8006A
:100ED000F611F90010C0B30026F2B7002500370064
:100EE000F691BF00A49680000020E10008003600C3
:100EF000349180006124E10005003A00D412F8002A
:100F0000F811F90020C0B30026F2B700190037002D
:100F1000349180006224E10016003A003491800090
:100F20004822DE006124E1000E003A0001002400A6
:100F300002002000FD0109008058EB0081E3A900B8
:100F40008063EF0004002400241C8800F40F2000BC
:100F5000541C880081E3A8009480A80020C0B3003E
:100F600027F2B7002003A9002023A8002003AE0029
:100F7000FEFF37008460A900A00120000C000900DA
:100F80004F1078004F0078003200F9003600F90069
:100F90004200F9000040060097C0A8009460A80035
:100FA00081E0A9004220EF0081E0A80000000600D7
:100FB000851F7800861F7800140020000960EF006C
:100FC0001292BF00A19080000402E8000402E90030
:100FD000030032000000D0008180D200FBFF370008
:100FE0006417210084024000140020000960EF0013
:100FF000B492BF00B19580000402E8000402E90049
:10100000030032000000D0008180D200FBFF3700D7
:101010000400240004004000900A78001212F80036
:101020000E12F9001412F8001012F9006A29EF00EC
:101030006C29EF000A32EF000C32EF006490800060
:101040006020E10048003E00040039005490800018
:10105000F30320000418E1004300360014002000D0
:101060000960EF000E92BF00819080000402E8004A
:101070000402E900030032000000D0008180D200A9
:10108000FBFF3700641721000400400000027800D5
:1010900014007800800278000003EB0005F0A70040
:1010A0000083EB00140020000960EF000A92BF00EB
:1010B000619080000402E8000402E90003003200AD
:1010C0000000D0008180D200FBFF3700A422210065
:1010D0000400400000027800140078008000EB005B
:1010E00000F0A7008080EB004200F80081E0A9003A
:1010F00042E0EF0081E0A800000178008101780063
:1011000005007800860078009A02020000000000C6
:1011100081E0A9004200F90081E0A8006A29B4003A
:10112000010078006C89B4006CA9B700749080004D
:10113000F483B20005003A001012E20003003A0006
:101140000E32EF001032EF00030037000E32EC00D9
:101150004220AF001032EC000A32EC004220AF0017
:101160000C32EC00B5FF370024862000A3958000E8
:1011700084824100140020000960EF001292BF0039
:10118000A19080000402E8000402E900030032009C
:101190000000D0008180D200FBFF370064172100DF
:1011A00004004000100378004430DE00804A7800DC
:1011B000804A7800149180004822DE006124E1001A
:1011C00010003A00240020000960EF00B492BF0034
:1011D000B19580000402E8000402E9000300320037
:1011E0000000D0008180D200FBFF3700E496200091
:1011F00084024000A4962000B41A7800B41A780043
:10120000510037006A89BF00614B80008001EB000C
:1012100001F0A7008081EB0003017800748B80004F
:1012200004005000848B800084805800948B8000E0
:1012300004015900A48B800084815900DC02020063
:1012400000000000B8B2B700D19588004200F80055
:1012500081E0A90042E0EF0081E0A800B892BF0061
:10126000D195800012908000239080003E03020000
:101270000000000081E0A9004200F90081E0A80020
:10128000BCB2B700F19588004300A9004200F80005
:1012900081E0A90042E0EF0081E0A800BC92BF001D
:1012A000F195800002002000E32F240002040200D8
:1012B0000000000081E0A9004200F90081E0A800E0
:1012C000C0B2B700119688004200F80081E0A90082
:1012D00042E0EF0081E0A800C092BF0011968000BC
:1012E000AC0502000000000081E0A9004200F90006
:1012F00081E0A80060E8B700240020000960EF004A
:10130000B492BF00B19580000402E8000402E90035
:10131000030032000000D0008180D200FBFF3700C4
:10132000E4962000840240006088BF00804298005C
:1013300000C0B3009042980000C0B300A0429800E3
:1013400000C0B300B04298001212E20006003A005A
:101350001412E20004003A00F40320009490880084
:101360001432EF00030037001232ED004200AE00ED
:101370001432ED004F037800CF0278000000060021
:10138000851F7800861F78000002780081027800AF
:101390000000EB008000EB000600A10005F0A600B5
:1013A000060037000600A0000402EA000200320036
:1013B0008582EA00010037008502EA00850172009B
:1013C000130032000001EB00610B20000270A70047
:1013D000070037004200A9000482D2008582D200B3
:1013E0000080D2000281D2008100E900F7FF3A00BC
:1013F0000180FD004200A9008180D30001F0A1001E
:101400000270A100814069000600A70001F0A00061
:101410004F037800CF02780000000600851F780097
:10142000C500200004000900B51F78008004EB000F
:101430008384680001037800800278000304780048
:10144000820378008180D2000180FD008180FB0052
:101450000100E0004E0032008381D2000380FD00D5
:101460008381FB000300E000490032000000EB0034
:1014700003C0500003003900F047B00044003100C1
:10148000030037001048B10041003900400032002D
:1014900085007800060178000270A000F20FB2000B
:1014A000F80FB2000870A0009A0120008001EB0044
:1014B0000002EB0087805000080159000200330051
:1014C0000400310004003A00878040000801490010
:1014D000010037000400A0000A05E90007003200FF
:1014E0004200A9008180D2000281D2004200A900FE
:1014F0000482D2008381D200EEFF37000005EB00AA
:101500000380A70001003700060037004200A90051
:101510008381D3000370A1000482D3000A85D20026
:10152000020037000000E900190032000AF0A700AD
:10153000050039008180D2000281D20087805000EE
:1015400008015900090039000402E80007003A00C8
:101550008301E80005003A000000E8000C003200BA
:10156000020037000000E900090032000080FD00A1
:101570008080D30001F0A00009F0A60001F0A100D6
:101580000370A10081C069000400780003003700E7
:10159000000020000100200000003700450120006D
:1015A00004000900CF127800CF0278000000060086
:1015B000881F78002801200004000900B81F780067
:1015C000090020004300AF0019002000891F7800A7
:1015D0000004EB008004EB000005EB008005EB004D
:1015E0000006EB008006EB00E80020000900200068
:1015F0001000FA000C377C000884E900FDFF3B0076
:1016000005046A0002003A0007046B00480032003B
:101610000004EB008006EB008D1F780003F0A600AD
:101620000A003700CF0678000DF0A0008D1F78006B
:101630008381EA000281EA008180EA000000EA007A
:10164000E080480060014900E081490007F0A60001
:101650000A003700CF0678000DF0A2008D1F780039
:101660008783EA000683EA008582EA000402EA0032
:10167000E0824A0060034B00E0834B000D04200031
:101680004200A9000080D2008180D2000281D200F5
:101690008381D2000884D2008984D2000A85D200D6
:1016A0008B85D2000758E10005003A0006D0E10022
:1016B00003003A0005C8E10001003A0004C0E1005F
:1016C000050039000404540085845C0006055D00B3
:1016D00087855D004200A800080F78001907980070
:1016E0002A0798003B0798004E049000DE04900003
:1016F0006E059000FE0590000884D2008984D20017
:101700000A85D2008B85D2004807980059079800B7
:101710006A0798007B0798001E0478009E049000DA
:101720002E059000BE0590008D06E900D4FF3A001A
:101730004E009000DE0090006E019000FE019000CF
:10174000CF0678000DF0A600070037008381EA007D
:101750000281EA008180EA000000EA00E08048009F
:1017600060014900E08149000080FA000000370074
:10177000CF0478000900E00004003200080078007F
:10178000890078000A0178008B017800A801200008
:10179000040009004F1478004F0478000000060090
:1017A000851F7800861F7800871F7800E4908000EE
:1017B0006020E100CF003E0004003900D49080009A
:1017C00083BB20000418E100CA0036006E0AF8004E
:1017D0006611F900700AF8006811F9006E0AF80045
:1017E0006A11F900700AF8006C11F9008040F800E5
:1017F0006409F90014042000A4958800B632EF00B3
:10180000B49580006020E10092003E0004003900A1
:10181000A4958000F30F20000418E1008D0036002D
:10182000240020000960EF00B492BF00B195800051
:101830000402E8000402E900030032000000D000C6
:101840008180D200FBFF3700E496200004004000B6
:101850000002780003002000B4197800B419780061
:10186000648B80000120E1001300350003003C0080
:10187000548B80000020E1000F003600240020007F
:101880000960EF00B492BF00B19580000402E80047
:101890000402E900030032000000D0008180D20081
:1018A000FBFF3700E496200004004000A41621004E
:1018B000301A7800301A7800240020000960EF0008
:1018C000B492BF00B19580000402E8000402E90070
:1018D000030032000000D0008180D200FBFF3700FF
:1018E000E49620000400400000027800030020007D
:1018F000B4197800B4197800448B80000120E1000D
:1019000013003C0003003500348B80000020E10010
:101910000F003100240020000960EF00B492BF00E6
:10192000B19580000402E8000402E90003003200DF
:101930000000D0008180D200FBFF3700E496200039
:101940000400400064162100301A7800301A780034
:10195000140020000960EF00B492BF00B195800030
:101960000402E8000402E900030032000000D00095
:101970008180D200FBFF37000400240004004000F7
:101980000002780014007800244B80000020E10061
:101990000E003600140020000960EF00B492BF0072
:1019A000B19580000402E8000402E900030032005F
:1019B0000000D0008180D200FBFF3700040024002B
:1019C00004004000901F78006409F9002400200002
:1019D0000960EF00B492BF00B19580000402E800F6
:1019E0000402E900030032000000D0008180D20030
:1019F000FBFF3700E496200004004000000278005E
:101A000003002000B4197800B41978008001EB00BD
:101A100001F0A7008081EB00030178006E31B40073
:101A2000010078007091B40070B1B700948B800011
:101A30000400490072B1B700A48B80000480490003
:101A400074B1B700B432EC004220AF00B632EC0003
:101A50006BFF3700348B8000538B800003005200F3
:101A6000448B8000638B800083005A00C009020011
:101A700000000000FEB1B7000190880000002000C7
:101A8000F1372400F28F8000039080000E0A0200DC
:101A90000000000002B2B700219088004300A900B6
:101AA0006E91BF00818B8000928B8000A38B8000A1
:101AB000F40B200005002000060020000700200095
:101AC000D80A0200000000006EB1B700818B8800C8
:101AD000928B8800A38B88006409F8006609F900DE
:101AE000E196200002002000FD0109008058EB0073
:101AF000340037008040F8006409F9001404200025
:101B0000C4958800BA32EF00D49580006020E100CF
:101B100028003E0004003900C4958000F30F200027
:101B20000418E10023003600140020000960EF00D3
:101B3000B892BF00D19580000402E8000402E900D9
:101B4000030032000000D0008180D200FBFF37008C
:101B50000400240004004000000278001400780013
:101B6000244B80000020E1000E003600140020000D
:101B70000960EF00B892BF00D19580000402E80030
:101B80000402E900030032000000D0008180D2008E
:101B9000FBFF37000400240004004000901F780081
:101BA0006409F900B832EC004220AF00BA32EC0010
:101BB000D5FF37006409F8006609F9001A32EF0012
:101BC0001C32EF001E32EF002032EF002372EF00D4
:101BD0001232EF001432EF00CF0378004F03780089
:101BE000CF027800000006009460A90097C0A90009
:101BF00081E0A900040E20001402880081E0A80002
:101C000000000600851F7800B4D2BF000160EF001D
:101C1000B082B2000D0032001080B2000E0032001F
:101C2000E086B2000E0032008080B2001500320063
:101C30008086B200780032001080B200A600320028
:101C40006080B200D0003200E100370010C0B30065
:101C500025F2B700DE0037009460A900DC003700F1
:101C60009460A8000421EF005E08F8000201F9006A
:101C7000040028002408880010C0B30025F2B70033
:101C8000D3003700F40D020000000000A122210063
:101C9000020020007F0009008058EB003490800093
:101CA0000484B20002003A000812E2003E00320052
:101CB0003202AE003B0037004200F80081E0A9008C
:101CC00042E0EF0081E0A8004E02020000000000A8
:101CD00081E0A9004200F90081E0A800B5F2B70058
:101CE000A49580004822DE00C4C4B20005003A007A
:101CF0000612E20003003A000812E20001003A0076
:101D0000280037001612E20008003A001812E2001C
:101D100006003A00B5D2BF0062E9B7001400200007
:101D2000B49088001832EF001E003700B5D2BF0013
:101D300063E9B7001632EF001832EF0063C9BF0045
:101D4000804278000B60EF00054078000BE0B700A0
:101D50008042EB00050078006209B70068A9B7006F
:101D6000140020000960EF000692BF00419080003F
:101D70000402E8000402E900030032000000D00081
:101D80008180D200FBFF3700A422210084024000A2
:101D9000444B8000840298000632EC004220AF00E1
:101DA0000832EC00BDFF37002A92BF00208DB20040
:101DB00005003200A08FB200060032009094B200FD
:101DC000070032000900370064052D00F442880046
:101DD0000800370064052D00F44288000500370034
:101DE00004F42100F44288000200370004F42100CA
:101DF000F44288000632EF000832EF0010C0B30052
:101E000023F2B70010C0B30025F2B700CC070200E0
:101E1000000000006E003700F40D0200000000001A
:101E20006629EF003202AE00200037004200F800C1
:101E300081E0A90042E0EF0081E0A8004E0202002C
:101E40000000000081E0A9004200F90081E0A80044
:101E5000B6F2B700B495800003032000041CE10033
:101E60000D003E00B495800093032000041CE100A7
:101E700009003900344B80006A20B80080027800E5
:101E8000B6D2BF000000FB000003B1000500400017
:101E900066A9B70005003700B495800094C2B2006F
:101EA00002003A000200370000003700DDFF370073
:101EB00010C0B30028F2B7000421EF005E08F8005C
:101EC0000201F9000400280024088800CC07020061
:101ED000000000003E003700F40D0200000000008A
:101EE0005E28EF003202AE00230037004200F80007
:101EF00081E0A90042E0EF0081E0A8004E0202006C
:101F00000000000081E0A9004200F90081E0A80083
:101F1000B7F2B700B49580004822DE00030320002A
:101F2000041CE1000E003E00B49580004822DE0053
:101F300093032000041CE10009003900F4428000F2
:101F40006A20B80080027800B7D2BF000000FB0012
:101F50000003B100050040005EA8B700060037008E
:101F6000B49580004822DE0094C2B20002003A001C
:101F70000200370000003700DAFF3700CC0702000C
:101F800000000000120037000100240002002000C1
:101F9000FD0109008058EB0081E3A9008063EF0098
:101FA00004002400241C8800F40F2000541C880026
:101FB00081E3A8009480A8002772EF002672EF004A
:101FC0002872EF0010C0B30025F2B7000000370000
:101FD000B472EF002472EF00CF0278000000060018
:101FE000404424002005880081E0A800600420000F
:101FF00042E7B7007005200042E7B70042C7A900DA
:1020000070F02300A6A6B70050002000C6A6B700B7
:102010006004200042E7B7007005200042E7B700E7
:1020200042C7A80014042000243A8800240320009A
:10203000343A88005A28EF000400280084118800F0
:1020400004402000941188003062A800240220007F
:10205000C41188005E28EF006429EF006629EF00B4
:102060006829EF006A29EF006C29EF006631EF0064
:102070006831EF006A31EF006C31EF006E31EF0034
:102080007031EF007231EF007431EF00FE31EF007C
:102090000032EF000232EF000432EF006169EF001E
:1020A0000632EF000832EF000A32EF000C32EF0088
:1020B0000E32EF001032EF001232EF001432EF0058
:1020C0001632EF001832EF001A32EF001C32EF0028
:1020D0001E32EF002032EF002272EF002372EF0079
:1020E0002472EF002572EF002672EF002772EF00D6
:1020F0002872EF0014042000243A880024032000F2
:10210000343A88000E00FC001010200031742000CA
:1021100082072000A30920008248780083487800C5
:1021200043E7B7004800DE0021742000620420006D
:102130007305200082487800834878008048780042
:102140002CA3EF000FF82300F0FF230020A0B7001E
:10215000000000005C28EF000FF82300F0FF2300D0
:1021600020A0B700000000000100240002002000B1
:10217000FE0009008058EB00E11F24001206200039
:1021800012C6B300FE000900825878008163EF0098
:10219000D0C0B30082E3B70004302000441C8800A4
:1021A00081E3A9008063EF0004002400241C880060
:1021B000F40F2000541C880081E3A8009480A8003C
:1021C00004F0290024198800044E2800041988000E
:1021D000E4FF2F00641988002223EF002003A900E8
:1021E0002023A8002003AE00FEFF37000421EF00EB
:1021F0005E08F8000201F9000400280024088800A5
:10220000CC0702000000000010C0B30023F2B700AA
:102210002252E20005003A00F4908000F48FB200F0
:102220006B003A002012E20069003A009480A90095
:10223000AA32EF00AC32EF00649580006020E1002C
:102240000F003E000400390054958000F30F200079
:102250000418E1000A003600AA12F800B412F900CE
:10226000AC12F800B612F900D80702000000000016
:10227000AA32EC004220AF00AC32EC00EEFF370097
:10228000149180004822DE006124E10002003A003F
:10229000D00B020000000000249180004822DE00E4
:1022A0006124E10042003A00449180006124E10091
:1022B00006003A00F611F8006E09F9007029EF00E7
:1022C000F811F8007209F9007429EF00AE32EF003E
:1022D000B032EF00849580006020E10012003E00E3
:1022E0000400390074958000F30F20000418E10009
:1022F0000D00360024862000739580000480410084
:10230000904278003322AF00FEFF37003402F8001D
:10231000E5FF9F003402F900AE32EC004220AF002E
:10232000B032EC00EBFF3700AE32EF00B032EF001E
:10233000849580006020E1001D003E00040039000B
:1023400074958000F30F20000418E1001800360097
:10235000240020000960EF00AE92BF00819580004C
:102360000402E8000402E900030032000000D0008B
:102370008180D200FBFF3700E4962000040040007B
:10238000A4002000301A7800301A78003322AF0001
:10239000FEFF37003402F800E5FF9F003402F90029
:1023A000AE32EC004220AF00B032EC00E0FF37006C
:1023B0002372EF002572EF001232EF001432EF00AB
:1023C0009480A8002272EF002672EF002772EF00BF
:1023D0002452E2000400320061C9BF00B4F2B70029
:1023E000020E02000000000089FF3700FFFF3700E7
:0200000401F009
:10000000CF0000FFCF0000FF070000FF810000FFCE
:10001000270000FF5F0000FFF00000FF430000FF2B
:00000001FF
;DSPIC33FJ64MC802
;CRC=8E70  CREATED="20-Nov-22 19:53"
