:08000000B20E04000000000034
:08003400A40600000002000018
:040060002402000076
:0400A00066020000F4
:100400004200F8003600F8003200F800801F780043
:10041000200020000C000900B01F780010C0B300BD
:1004200061E9B7008480A900A00120000C00090048
:100430004F1078004F0078003200F9003600F900C4
:100440004200F900004006004200F8003600F800C3
:100450003200F800801F7800200020000C00090006
:10046000B01F780085C0A900A00120000C00090081
:100470004F1078004F0078003200F9003600F90084
:100480004200F90000400600851F780005B02400F6
:100490009E010900000000008502E90003003A0007
:1004A0005A28EF0000002000060037003202AE009C
:1004B000F7FF37003202F8005A08F900B011800047
:1004C0003222A900CF027800000006004200F800A6
:1004D0003600F8003200F800801F7800200020006D
:1004E0000C000900B01F7800440202000000000068
:1004F00061E8B70010C0B30027F2B70087C0A900B9
:10050000A00120000C0009004F1078004F00780077
:100510003200F9003600F9004200F9000040060000
:10052000851F7800C500200003000900B51F780072
:100530000202B80003F0A600020037000383B900EE
:10054000010037000303B8004200A9008502430000
:1005500060844B0001F0A60002003700028BB90056
:1005600001003700020BB80085024B0008844B00E5
:100570000980B000038BB90008044B0087834C004E
:100580008701780008017800850078000400780071
:100590002501200003000900CF127800CF02780067
:1005A00000000600851F7800C50020000300090038
:1005B000B51F7800000278008102780002037800FD
:1005C000830378000000EB008000EB000001EB00EB
:1005D0008001EB000800A10007F0A600050037002D
:1005E0000600A0000402EA008582EA000683EA0011
:1005F0008783EA0085046A0002003A0087046B00E2
:1006000014003200610D20000270A70009003700BD
:100610004200A9000482D2008582D2000683D20063
:100620008783D2000080D2000281D2008100E900DD
:10063000F5FF3A000180FD004200A9008180D3004F
:1006400001F0A1000270A100814069000600A7002E
:1006500001F0A0002501200003000900CF1278005E
:10066000CF02780000000600851F7800C50020003A
:1006700004000900B51F78000002780081027800AC
:1006800083037800020378004200A9004220A900F9
:100690008180D2000180FD00F10FB2000100E00076
:1006A0004B0032004200A9004220A9008381D20001
:1006B0000380FD00F30FB2000300E00044003200AD
:1006C0000080FB0001C0410004003100F007B100D0
:1006D0003F0032003E003900020037001048B000F1
:1006E0003B00310007856A004200A9004220A900B2
:1006F000F50FB2000570A0004200A900F70FB2008C
:100700000770A0000621B800062CB80083014C0039
:10071000890078004200AF008100E8004200A90093
:10072000043CB80083014C0081804C00072CB800C9
:1007300081004C000000E8000100E0004220AF0012
:1007400001003700030037000300E0004220AF0043
:100750000500370001F0A700030037008381D200B5
:100760008180D2000000E900010178004200A90068
:100770000370A6000900370007F02F008781610091
:100780000310B000600149000200E00003003A00DD
:100790000300E00001003A000000E8000080FD00D6
:1007A0004200A9004220A9008080D3000AF0A700DF
:1007B00001F0A00002F0A1000280FD00814069006C
:1007C0000380FD0003417800020078000300370039
:1007D000000020000100200000003700450120003B
:1007E00004000900CF127800CF0278000000060054
:1007F000851F7800C500200003000900B51F7800A0
:100800008004EB00080028004300AF0083016C0067
:100810000000E00003003A00FAFF27000A856000AC
:100820004220AE00010578008A8569000103780046
:1008300083037800030678004220A9004200A90043
:100840000683D2000680FD00F60FB2000600E0002D
:10085000A10032004220A9004200A9008783D200F3
:100860000780FD00F70FB2000700E0009F00320094
:100870004220A9004200A9000638E1009C00320095
:10088000A30033000900A1000910A0000684530052
:1008900007037800F10FB2000170A000F30FB2005F
:1008A0000370A000870220000838E1001100330027
:1008B0004220A9004200A9008180D3000080D3001B
:1008C0000804E900FAFF3A000D0037008702200013
:1008D0000838E100090033004220A9004200A900C5
:1008E0008381D3000281D3000804E900FAFF3A00B3
:1008F0000F003700020078008300780043003700C3
:100900000BF0A600110037000940A7008C05780005
:100910000000EA000200320081C0EA000100370056
:100920008100EA000940A7002B00370007003700CC
:100930000BF0A600050037000201EA0002003200B9
:1009400083C1EA00010037008301EA00F50FB2001D
:100950004220A9004200A9000200400083C04800D4
:100960004200AF000930A0000900A70009003700CD
:100970000910A700010037000B0037000BF0A7009B
:10098000150037000930A700290037000960A000D2
:100990001E0037000BF0A7000F0037000930A7003A
:1009A00023003700190037000920A1000BF0A70031
:1009B000040037008A0578000930A7001C003700C2
:1009C000360037000940A00001C8B2000170A7003E
:1009D000CDFF37008A057800F10FB2008103700067
:1009E0000A0032000170A700080037004220A90069
:1009F0004200A9000080D2008180D2000603E900F5
:100A00004220AF0031003700F6FF37000900A70091
:100A10008A0578000910A7008C0578000950A60007
:100A20001A0037000AF0A7000080A0001B00370062
:100A30004200A80081C0D3000080D3004200AF0074
:100A40000950A0000603E800200032000950A6006B
:100A5000080037000000E80006003A008140E80086
:100A600004003A0081C0D3000080D3000603E800F0
:100A7000160032000900A7008A0578000910A700B7
:100A80008C0578004220AF00100037000960A700F5
:100A90008A0578000970A7008C05780001017000B4
:100AA000230032000170A1000680FD004220A90051
:100AB0004200A9000683D30081006B0001F0A00072
:100AC0000BF0A60001F0A100190037000000200083
:100AD00001002000160037000AF0A70083016C0017
:100AE0000200780083007800110037001000370002
:100AF000F30FB2000370A000F10FB2000170A0006C
:100B00000BF0A7000370A1000920A00088FF3700A8
:100B100007045300F10FB2000170A000F30FB20000
:100B20000370A0000910A1000900A00067FF3700B2
:100B30002501200003000900CF127800CF027800C1
:100B40000000060000017800810178000140780073
:100B50000080FD0000F0A0008180D2000180FD0037
:100B60008180FB00E4082000814052000600320032
:100B70000000E000040032004200A9000080D30021
:100B80008100E900FAFF3A0003F0A60002003700F6
:100B90000000EA000000370000000600851F780012
:100BA000861F78001612F8001212F9001812F800C9
:100BB0001412F9000E32EF001032EF006E29EF0030
:100BC0007029EF00849080006020E10031003E0039
:100BD0000400390074908000F30320000418E10041
:100BE0002C003600E596800006002000140020004E
:100BF0000960EF000E92BF00819080000402E800BF
:100C00000402E900030032000000D0008180D2001D
:100C1000FBFF3700E42221000400400000027800BE
:100C2000140078008000EB0000F0A7008080EB004B
:100C300000017800810178000500780086007800C6
:100C400090020200000000006E29B400010078004C
:100C50007089B40070A9B70094908000F483B2004A
:100C600005003A001412E20003003A001232EF00CD
:100C70001432EF00030037001232EC004220AF00C4
:100C80001432EC000E32EC004220AF001032EC00C7
:100C9000CCFF37006E89BF00814B80008001EB00E4
:100CA00001F0A7008081EB0003017800948B8000A5
:100CB00004005000A48B800084805800B48B800016
:100CC00004015900C48B800084815900D2020200C3
:100CD00000000000DEB2B70001978800DE92BF007E
:100CE000019780003290800043908000340302001E
:100CF00000000000E2B2B700219788004300A9007D
:100D0000E292BF002197800002002000E32F240020
:100D1000F803020000000000E6B2B7004197880027
:100D2000E692BF0041978000A2050200000000008B
:100D3000EAF2B700EAD2BF0000E0B7004F03780044
:100D4000CF027800000006004200F8003600F800EC
:100D50003200F800801F7800200020000C000900FD
:100D6000B01F7800C9C2A900CDC2AA00349180008A
:100D70006124E10008003A002003A9002023A80014
:100D80002003AE00FEFF37002232EC004220AF000D
:100D90002432EC004A003700D632EF004491800044
:100DA0004822DE006224E1000A0032002003A9008C
:100DB0002023A8002003AE00FEFF370005188000A6
:100DC000E5968800CE05020000000000D6F2B700CC
:100DD000D772EF002A52E20007003A009480A9007F
:100DE0000100240002002000FD0109008058EB00F2
:100DF00010C0B3002AF2B700D692BF006A09E30020
:100E000007003A002952E20005003A00D612F80025
:100E1000FA11F90010C0B30029F2B700280037001A
:100E2000FA91BF00B49680000020E1000900340070
:100E3000449180004822DE006124E10005003A0070
:100E4000D612F800FC11F90020C0B30029F2B70057
:100E50001B003700449180004822DE006224E1003C
:100E600016003A00549180006124E1000E003A001F
:100E70000100240002002000FD0109008058EB0061
:100E800081E3A9008063EF0004002400241C880093
:100E9000F40F2000541C880081E3A8009480A8006F
:100EA00020C0B3002AF2B7002003A9002023A80025
:100EB0002003AE00FEFF3700010037002972EF006B
:100EC0008460A900A00120000C0009004F107800E8
:100ED0004F0078003200F9003600F9004200F900B6
:100EE00000400600851F7800861F7800140020004F
:100EF0000960EF001692BF00C19080000402E80074
:100F00000402E900030032000000D0008180D2001A
:100F1000FBFF3700A41721008402400014002000CA
:100F20000960EF00B892BF00D19580000402E8008C
:100F30000402E900030032000000D0008180D200EA
:100F4000FBFF37000400240004004000900A7800F2
:100F50001612F8001212F9001812F8001412F90013
:100F60006E29EF007029EF000E32EF001032EF0013
:100F7000849080006020E10048003E0004003900B9
:100F800074908000F30320000418E1004300360051
:100F9000140020000960EF001292BF00A1908000B1
:100FA0000402E8000402E900030032000000D0005F
:100FB0008180D200FBFF3700A4172100040040000D
:100FC0000002780014007800800278000003EB0033
:100FD00005F0A7000083EB00140020000960EF007B
:100FE0000E92BF00819080000402E8000402E90034
:100FF000030032000000D0008180D200FBFF3700E8
:10100000E42221000400400000027800140078006F
:101010008000EB0000F0A7008080EB004200F800A9
:1010200081E0A90042E0EF0081E0A8000001780023
:1010300081017800050078008600780090020200A7
:101040000000000081E0A9004200F90081E0A80052
:101050006E29B400010078007089B40070A9B7004F
:1010600094908000F483B20005003A001412E2006C
:1010700003003A001232EF001432EF000300370091
:101080001232EC004220AF001432EC000E32EC00C1
:101090004220AF001032EC00B5FF3700248620005C
:1010A000C395800084824100140020000960EF0095
:1010B0001692BF00C19080000402E8000402E9001B
:1010C000030032000000D0008180D200FBFF370017
:1010D000A417210004004000100378004430DE0013
:1010E000804A7800804A7800349180006124E100D1
:1010F00010003A00240020000960EF00B892BF0001
:10110000D19580000402E8000402E90003003200E7
:101110000000D0008180D200FBFF37002497200020
:1011200084024000E4962000B41A7800B41A7800D3
:10113000600037006E89BF00814B80008001EB00AA
:1011400001F0A7008081EB0003017800948B800000
:1011500004005000A48B800084805800B48B800071
:1011600004015900C48B800084815900D20202001E
:1011700000000000BCB2B700F19588004200F80002
:1011800081E0A90042E0EF0081E0A800BC92BF002E
:10119000F19580003290800043908000340302007B
:1011A0000000000081E0A9004200F90081E0A800F1
:1011B000C0B2B700119688004300A9004200F800B1
:1011C00081E0A90042E0EF0081E0A800C092BF00EA
:1011D0001196800002002000E32F2400F803020093
:1011E0000000000081E0A9004200F90081E0A800B1
:1011F000C4B2B700319688004200F80081E0A9002F
:1012000042E0EF0081E0A800C492BF003196800068
:10121000A20502000000000081E0A9004200F900E0
:1012200081E0A80060E8B700240020000960EF001A
:10123000B892BF00D19580000402E8000402E900E2
:10124000030032000000D0008180D200FBFF370095
:10125000E4D6200084024000E4962000B41A78000E
:10126000B41A7800240020000960EF00B892BF0093
:10127000D19580000402E8000402E9000300320076
:101280000000D0008180D200FBFF370024972000AF
:10129000840240006088BF008042980000C0B30014
:1012A0009042980000C0B300A042980000C0B30074
:1012B000B04298001612E20006003A001812E2004E
:1012C00004003A00F4032000B49088001832EF00C4
:1012D000030037001632ED004200AE001832ED0078
:1012E0004F037800CF02780000000600851F7800C9
:1012F000861F780000027800810278000000EB0071
:101300008000EB000600A10005F0A60006003700F3
:101310000600A0000402EA00020032008582EA0012
:10132000010037008502EA008501720013003200D7
:101330000001EB00610B20000270A70007003700DE
:101340004200A9000482D2008582D2000080D2002F
:101350000281D2008100E900F7FF3A000180FD0020
:101360004200A9008180D30001F0A1000270A10019
:10137000814069000600A70001F0A0004F0378003B
:10138000CF02780000000600851F7800C50020000D
:1013900004000900B51F78008004EB008384680016
:1013A000010378008002780003047800820378004B
:1013B0008180D2000180FD008180FB000100E000FF
:1013C0004E0032008381D2000380FD008381FB0048
:1013D0000300E000490032000000EB0003C05000B1
:1013E00003003900F047B00044003100030037002B
:1013F0001048B100410039004000320085007800FB
:10140000060178000270A000F20FB200F80FB200DF
:101410000870A0009A0120008001EB000002EB00A0
:101420008780500008015900020033000400310099
:1014300004003A008780400008014900010037009D
:101440000400A0000A05E900070032004200A900DC
:101450008180D2000281D2004200A9000482D20021
:101460008381D200EEFF37000005EB000380A70068
:1014700001003700060037004200A9008381D30035
:101480000370A1000482D3000A85D2000200370055
:101490000000E900190032000AF0A7000500390039
:1014A0008180D2000281D20087805000080159005B
:1014B000090039000402E80007003A008301E8004F
:1014C00005003A000000E8000C003200020037007E
:1014D0000000E900090032000080FD008080D30098
:1014E00001F0A00009F0A60001F0A1000370A10026
:1014F00081C069000400780003003700000020006C
:101500000100200000003700450120000400090010
:10151000CF127800CF02780000000600881F780004
:101520002801200004000900B81F780009002000ED
:101530004300AF0019002000891F78000004EB0071
:101540008004EB000005EB008005EB000006EB00DB
:101550008006EB00E8002000090020001000FA00DF
:101560000C377C000884E900FDFF3B0005046A009D
:1015700002003A0007046B00480032000004EB0050
:101580008006EB008D1F780003F0A6000A003700EC
:10159000CF0678000DF0A0008D1F78008381EA004F
:1015A0000281EA008180EA000000EA00E080480051
:1015B00060014900E081490007F0A6000A003700F9
:1015C000CF0678000DF0A2008D1F78008783EA0017
:1015D0000683EA008582EA000402EA00E0824A000B
:1015E00060034B00E0834B000D0420004200A90083
:1015F0000080D2008180D2000281D2008381D2009B
:101600000884D2008984D2000A85D2008B85D2005A
:101610000758E10005003A0006D0E10003003A0057
:1016200005C8E10001003A0004C0E10005003900EE
:101630000404540085845C0006055D0087855D0018
:101640004200A800080F7800190798002A079800A0
:101650003B0798004E049000DE0490006E05900059
:10166000FE0590000884D2008984D2000A85D20049
:101670008B85D20048079800590798006A079800A0
:101680007B0798001E0478009E0490002E059000B1
:10169000BE0590008D06E900D4FF3A004E00900090
:1016A000DE0090006E019000FE019000CF067800F1
:1016B0000DF0A600070037008381EA000281EA00EE
:1016C0008180EA000000EA00E080480060014900F3
:1016D000E08149000080FA0000003700CF04780064
:1016E0000900E0000400320008007800890078005A
:1016F0000A0178008B017800A8012000040009008D
:101700004F1478004F04780000000600851F780011
:10171000861F7800871F7800049180006020E10018
:10172000CF003E0004003900F490800083BB20000D
:101730000418E100CA003600720AF8006A11F900C4
:10174000740AF8006C11F900720AF8006E11F900C1
:10175000740AF8007011F9008040F8006809F90077
:1017600014042000C4958800BA32EF00D49580009C
:101770006020E10092003E0004003900C495800022
:10178000F30F20000418E1008D0036002400200033
:101790000960EF00B892BF00D19580000402E80014
:1017A0000402E900030032000000D0008180D20072
:1017B000FBFF37002497200004004000000278005F
:1017C00003002000B4197800B4197800848B8000DD
:1017D0000120E1001300350003003C00748B800001
:1017E0000020E1000F003600240020000960EF0017
:1017F000B892BF00D19580000402E8000402E9001D
:10180000030032000000D0008180D200FBFF3700CF
:101810002497200004004000E4162100301A7800CC
:10182000301A7800240020000960EF00B892BF0051
:10183000D19580000402E8000402E90003003200B0
:101840000000D0008180D200FBFF370024972000E9
:10185000040040000002780003002000B419780062
:10186000B4197800648B80000120E10013003C0073
:1018700003003500548B80000020E1000F00310090
:10188000240020000960EF00B892BF00D1958000CD
:101890000402E8000402E900030032000000D00066
:1018A0008180D200FBFF3700249720000400400015
:1018B000A4162100301A7800301A78001400200095
:1018C0000960EF00B892BF00D19580000402E800E3
:1018D0000402E900030032000000D0008180D20041
:1018E000FBFF3700040024000400400000027800E1
:1018F00014007800444B80000020E1000E00360008
:10190000140020000960EF00B892BF00D19580005C
:101910000402E8000402E900030032000000D000E5
:101920008180D200FBFF3700040024000400400047
:10193000901F78006809F900240020000960EF007A
:10194000B892BF00D19580000402E8000402E900CB
:10195000030032000000D0008180D200FBFF37007E
:1019600024972000040040000002780003002000BB
:10197000B4197800B41978008001EB0001F0A700D9
:101980008081EB00030178007231B400010078001F
:101990007491B40074B1B700B48B800004004900A6
:1019A00076B1B700C48B80000480490078B1B700DD
:1019B000B832EC004220AF00BA32EC006BFF3700C7
:1019C000548B8000738B800003005200648B800076
:1019D000838B800083005A0076090200000000001B
:1019E00002B2B7002190880000002000F1372400E7
:1019F0001290800023908000C409020000000000C3
:101A000006B2B700419088004300A9007291BF0060
:101A1000A18B8000B28B8000C38B8000F40B200070
:101A20000500200006002000070020008E0A0200AA
:101A30000000000072B1B700A18B8800B28B880053
:101A4000C38B88006809F8006A09F9002197200013
:101A500002002000FD0109008058EB00340037002F
:101A60008040F8006809F90014042000E49588001B
:101A7000BE32EF00F49580006020E10028003E00B7
:101A800004003900E4958000F30F20000418E10001
:101A900023003600140020000960EF00BC92BF0054
:101AA000F19580000402E8000402E900030032001E
:101AB0000000D0008180D200FBFF3700040024002A
:101AC000040040000002780014007800444B8000BD
:101AD0000020E1000E003600140020000960EF0035
:101AE000BC92BF00F19580000402E8000402E90006
:101AF000030032000000D0008180D200FBFF3700DD
:101B00000400240004004000901F78006809F900D8
:101B1000BC32EC004220AF00BE32EC00D5FF3700F3
:101B20006809F8006A09F9001E32EF002032EF0060
:101B30002232EF002432EF002672EF001632EF005F
:101B40001832EF00CF0378004F037800CF027800FF
:101B500000000600851F7800B8D2BF000160EF00CA
:101B6000B082B200070032001080B20008003200DC
:101B7000E086B200080032008080B2000F00320020
:101B80007400370010C0B30028F2B70071003700AE
:101B90009460A9006F0037009460A8000421EF0052
:101BA0005E08F8000201F9000400280024088800FB
:101BB00010C0B30028F2B700660037009460A90097
:101BC00097C0A90081E0A900040E2000140288003B
:101BD00081E0A800E1222100020020007F0009002E
:101BE0008058EB00549080000484B20002003A0058
:101BF0000C12E2003A0032003202AE003700370029
:101C00004200F80081E0A90042E0EF0081E0A80076
:101C1000440202000000000081E0A9004200F90037
:101C200081E0A800B9F2B700C49580004822DE0028
:101C3000C4C4B20001003A00280037001A12E200C2
:101C400008003A001C12E20006003A00B9D2BF00B8
:101C500062E9B70014002000D49088001C32EF0025
:101C60001E003700B9D2BF0063E9B7001A32EF0097
:101C70001C32EF0063C9BF00804278000B60EF00A8
:101C8000054078000BE0B7008042EB0005007800CB
:101C90006209B7006CA9B700140020000960EF00CA
:101CA0000A92BF00619080000402E8000402E9008B
:101CB000030032000000D0008180D200FBFF37001B
:101CC000E422210084024000644B800084029800DA
:101CD0000A32EC004220AF000C32EC00C1FF3700AA
:101CE0002E92BF00208DB20005003200A08FB200FE
:101CF000060032009094B20007003200090037005D
:101D000064052D00F44288000800370064052D00AA
:101D1000F44288000500370004F42100F4428800F2
:101D20000200370004F42100F44288000A32EF0078
:101D30000C32EF0010C0B30028F2B70097C0A80023
:101D40009460A80081E0A9004220EF0081E0A80093
:101D500000003700B872EF002772EF00CF02780062
:101D600000000600404424002005880081E0A8000F
:101D70006004200042E7B7007005200042E7B7008A
:101D800042C7A90070F02300A6A6B70050002000AB
:101D9000C6A6B7006004200042E7B7007005200027
:101DA00042E7B70042C7A80014042000243A880084
:101DB00024032000343A88005A28EF000400280049
:101DC0008411880004402000941188003062A8002B
:101DD00024022000C41188005E28EF006829EF006B
:101DE0006A29EF006C29EF006E29EF007029EF00DF
:101DF0006A31EF006C31EF006E31EF007031EF00AF
:101E00007231EF007431EF007631EF007831EF007E
:101E10000232EF000432EF000632EF000832EF002A
:101E20006168EF000A32EF000C32EF000E32EF0073
:101E30001032EF001232EF001432EF001632EF00D2
:101E40001832EF001A32EF001C32EF001E32EF00A2
:101E50002032EF002232EF002432EF006169EF0000
:101E60002672EF002772EF002872EF002972EF0050
:101E70002A72EF002B72EF002C72EF001404200086
:101E8000243A880024032000343A88000E00FC0025
:101E9000101020003174200082072000A3092000C8
:101EA000824878008348780043E7B7004800DE00A6
:101EB000217420006204200073052000824878000D
:101EC00083487800804878002CA3EF000FF82300A7
:101ED000F0FF230020A0B700000000005C28EF0006
:101EE0000FF82300F0FF230020A0B700000000003F
:101EF0000100240002002000FE0009008058EB00D1
:101F0000E11F24001206200012C6B300FE000900E3
:101F1000825878008163EF00D0C0B30082E3B7003D
:101F200004302000441C880081E3A9008063EF0096
:101F300004002400241C8800F40F2000541C880096
:101F400081E3A8009480A80004F0290024198800E7
:101F5000044E280004198800E4FF2F00641988004B
:101F60002223EF002003A9002023A8002003AE00B5
:101F7000FEFF37000421EF005E08F8000201F900BF
:101F8000040028002408880097C0A8009460A800D6
:101F900081E0A9004220EF0081E0A80010C0B3005A
:101FA00026F2B7006149E20005003A001491800072
:101FB000F48FB20060003A002412E2005E003A00A2
:101FC0009480A900AE32EF00B032EF00849580001B
:101FD0006020E1000F003E0004003900749580008D
:101FE000F30F20000418E1000A003600AE12F800DA
:101FF000B812F900B012F800BA12F9007207020024
:1020000000000000AE32EC004220AF00B032EC0025
:10201000EEFF3700349180006124E10002003A00B5
:10202000860B020000000000449180006124E10062
:1020300039003A00B232EF00B432EF00A4958000CC
:102040006020E10012003E000400390094958000F9
:10205000F30F20000418E1000D0036002486200054
:102060009395800004804100904278003322AF00B5
:10207000FEFF37003402F800E5FF9F003402F9004C
:10208000B232EC004220AF00B432EC00EBFF37007C
:10209000B232EF00B432EF00A49580006020E1007E
:1020A0001D003E000400390094958000F30F2000CD
:1020B0000418E10018003600240020000960EF0039
:1020C000B292BF00A19580000402E8000402E9007A
:1020D000030032000000D0008180D200FBFF3700F7
:1020E0002497200004004000A4002000301A78004B
:1020F000301A78003322AF00FEFF37003402F800B8
:10210000E5FF9F003402F900B232EC004220AF003C
:10211000B432EC00E0FF37002672EF002872EF00C7
:102120001632EF001832EF009480A8006169EF00CA
:102130002972EF002A72EF002752E20004003200F9
:1021400061C8BF00B8F2B700AA0D0200000000008D
:0821500094FF3700FFFF370088
:0200000401F009
:10000000CF0000FFCF0000FF070000FF810000FFCE
:10001000270000FF5F0000FFF00000FF430000FF2B
:00000001FF
;DSPIC33FJ64MC802
;CRC=6732  CREATED="09-Nov-22 21:34"
