:080000009C0304000000000055
:08003400600200001C02000044
:04006000400200005A
:100400003220EF00C3202000008041001040BA00DD
:100410000160EF00000006000A0D0000204100000E
:100420004443000020560000616C00003A200000A8
:1004300025640000000000004200F8003600F800CB
:100440003200F800801F7800200020000C00090016
:10045000B01F780010C0B30012E9B7008480A90073
:10046000A00120000C0009004F1078004F00780018
:100470003200F9003600F9004200F90000400600A1
:100480004200F8003600F8003200F800801F7800C3
:10049000200020000C000900B01F780085C0A900D2
:1004A000A00120000C0009004F1078004F007800D8
:1004B0003200F9003600F9004200F9000040060061
:1004C0004200F8003600F8003200F800801F780083
:1004D000200020000C000900B01F78002003A900B4
:1004E0002023A8002003AE00FEFF37008460A9008F
:1004F000A00120000C0009004F1078004F00780088
:100500003200F9003600F9004200F9000040060010
:100510000000E0004220AF00060037001B0E09007B
:1005200000000000FE3F0900000000000000E9009C
:10053000FAFF3A0000000600851F7800C500200081
:1005400003000900B51F780000F0A6000C0037007A
:100550000000EA000480A00004F0A60008003700B4
:10056000801F7800D00220003322AF00FEFF37004A
:1005700034A2B7004F0078000480A1000860ED00AD
:100580008002EB00800378008404780004F0A1006E
:100590000404E00006003A0009F0A700020037005A
:1005A000050020001400370005002000120037006D
:1005B0000980A600E64252000980A700E7425200E7
:1005C0000C0039000003200009F0A6000002200002
:1005D000801F78003322AF00FEFF370034A2B7003F
:1005E0004F0078008502E900F9FF3B00550020002C
:1005F0000100370084027800640020000580A70015
:100600000402E80005E0A00009F0A70005F0A00042
:1006100008712200110009008883D80052030200EB
:100620000000000081037800883E200011000900CE
:100630008883D80052030200000000008103780084
:1006400048062000110009008883D80052030200E8
:100650000000000081037800A800200011000900BC
:100660008883D80052030200000000000980A60021
:1006700005003700D00220003322AF00FEFF370014
:1006800034A2B7000980A1000003200000C0400090
:10069000500188003322AF00FEFF370034A2B700BC
:1006A00020003700060320000000E0000E003A00A2
:1006B00005E0A600160037000402E9000524E10069
:1006C000020032004200AF00000006000000E0001F
:1006D00005003A0005E0A6000D00370005F0A60071
:1006E000060220000A00370005E0A1000980A600EC
:1006F0000700370000057800D00220003322AF0049
:10070000FEFF370034A2B7000980A1000A0078007C
:10071000004043003322AF00FEFF370034A2B70091
:10072000000006002501200003000900CF12780018
:10073000CF027800000006000F772400F07F24002D
:1007400020A0B700000000004044240020058800DD
:1007500081E0A8000600FC00217420006204200053
:1007600073052000824878008348780042C7A900BA
:1007700070F02300A6A6B70050002000C6A6B70060
:100780000600FC0021742000620420007305200094
:10079000824878008348780042C7A80014042000EB
:1007A000243A8800F4032000343A88004827EF00F8
:1007B0005A28EF000400280084118800044020001B
:1007C000941188003062A800A4022000C41188009F
:1007D0001269EF002CA3EF004B003700C0060800A1
:1007E0005C0000004BF03F005C0A5800F63B8F00B5
:1007F00000C03C008B28AC003CBEF6003FD2D500C8
:1008000044168C0015D7BF0069005A002E1B8700C4
:10081000993F9A005FAD4B0091E40100C05D11006B
:100820002F92E40081FB3F0038DA9100809DC500E3
:10083000E0BF6F0012C0B400C309AB003F6BC10042
:10084000034EC100B545BF00F7400500FF005C0046
:10085000EF3FF300A3E2F700D7FF010040C0B40070
:10086000FF053C0058FC3F003BD3C000B5BA8C00EC
:10087000E23F3900D3C73D004179B2003F870D0008
:100880003C50D000AF623F00304B8D00A282AA00E6
:1008900004400900A0404A000576030040EC9E0099
:1008A0003788A60044F03F008F128D00299A5B0024
:1008B000C73F0E00E0807C00A1D886003F294B0096
:1008C000FB95C200371A3F00000000000000000046
:1008D0000201E8006110E10004003A009101BA0051
:1008E0003182BA0006C0BF00000006006210E100BD
:1008F00002003A0007C0BF000000060008C0BF00A9
:100900000001EB00000006000600200000002000AF
:1009100090018800E03E2000800078000001EB009C
:1009200068040200000000000BE0B7006804020049
:10093000000000000AE0B7000500E00019003200E6
:1009400005F0A60007003700680402000000000060
:100950000DE0B70068040200000000000CE0B700E2
:1009600005F0A10005E0A6000800370005E0A100A1
:100970008502E9006804020000000000804378005E
:1009800005800900075B7800E5FF37006804020076
:1009900000000000005B78008502E900FBFF3A00E0
:1009A000DFFF37000100240002002000630009007F
:1009B0008058EB00810C24001206200012C6B30000
:1009C00063000900825878008163EF00D0C0B30053
:1009D00082E3B70004302000441C880081E3A900B2
:1009E0008063EF0004002400241C880044062000DB
:1009F000541C880081E3A80000C7B3008DE3B70052
:100A0000F0C1B3008EE3B70044232000A41C88008B
:100A10009480A80095C0A800E4FF2F006419880006
:100A20002223EF000440280024198800044E2800E7
:100A3000041988002003A9002023A8002003AE0089
:100A4000FEFF37000421EF0004A62E0014088800E2
:100A500004002800240888009460A80081E0A90010
:100A60004220EF0081E0A800803E200088020200C2
:100A7000000000001249E200280032009480A90022
:100A80001429EF00A4488000430620000418E10068
:100A9000170036001489BF004100DD000400240067
:100AA000040040009002780001002000010078005E
:100AB0000160EF0000020200000000008100E80079
:100AC0003322AF00FEFF370034A2B700B000200091
:100AD0000008E600F5FF370005007800040020005C
:100AE0009C020200000000001429EC00E5FF370022
:100AF0008DE3A90010C0B3008CE3B700040024000C
:100B0000841C880044062000B41C88008DE3A800E3
:100B10008FE3A8009480A8001269EF00D2FF37008D
:040B2000FFFF37009C
:0200000401F009
:10000000CF0000FFCF0000FF070000FF810000FFCE
:10001000230000FF5F0000FFF00000FF430000FF2F
:00000001FF
;DSPIC33FJ64MC802
;CRC=EDE9  CREATED="18-Oct-22 21:00"
