:08000000020D040000000000E5
:08003400900200000002000030
:040060002402000076
:0400A00066020000F4
:100400004200F8003600F8003200F800801F780043
:10041000200020000C000900B01F780010C0B300BD
:1004200061E9B7008480A900A00120000C00090048
:100430004F1078004F0078003200F9003600F900C4
:100440004200F900004006004200F8003600F800C3
:100450003200F800801F7800200020000C00090006
:10046000B01F780085C0A900A00120000C00090081
:100470004F1078004F0078003200F9003600F90084
:100480004200F90000400600851F780005B02400F6
:100490009E010900000000008502E90003003A0007
:1004A0005A28EF0000002000060037003202AE009C
:1004B000F7FF37003202F8005A08F900B011800047
:1004C0003222A900CF027800000006004200F800A6
:1004D0003600F8003200F800801F7800200020006D
:1004E0000C000900B01F7800440202000000000068
:1004F00061E8B70010C0B3001FF2B70087C0A900C1
:10050000A00120000C0009004F1078004F00780077
:100510003200F9003600F9004200F9000040060000
:100520004200F8003600F8003200F800801F780022
:10053000200020000C000900B01F7800C9C2A900EB
:10054000CDC2AA002003A9002023A8002003AE00EA
:10055000FEFF37008460A900A00120000C00090004
:100560004F1078004F0078003200F9003600F90093
:100570004200F90000400600851F7800C5002000F9
:1005800003000900B51F78000202B80003F0A600BE
:10059000020037000383B900010037000303B800ED
:1005A0004200A9008502430060844B0001F0A600D0
:1005B00002003700028BB90001003700020BB800BF
:1005C00085024B0008844B000980B000038BB90002
:1005D00008044B0087834C008701780008017800ED
:1005E0008500780004007800250120000300090040
:1005F000CF127800CF02780000000600851F780037
:10060000C500200003000900B51F78000002780033
:100610008102780002037800830378000000EB0079
:100620008000EB000001EB008001EB000800A1005E
:1006300007F0A600050037000600A0000402EA004B
:100640008582EA000683EA008783EA0085046A005F
:1006500002003A0087046B0014003200610D200094
:100660000270A700090037004200A9000482D200EE
:100670008582D2000683D2008783D2000080D20018
:100680000281D2008100E900F5FF3A000180FD00FF
:100690004200A9008180D30001F0A1000270A100F6
:1006A000814069000600A70001F0A000250120009C
:1006B00003000900CF127800CF0278000000060086
:1006C000851F7800C500200004000900B51F7800D0
:1006D000000278008102780083037800020378002A
:1006E0004200A9004220A9008180D2000180FD00C3
:1006F000F10FB2000100E0004B0032004200A900FF
:100700004220A9008381D2000380FD00F30FB200D4
:100710000300E000440032000080FB0001C0410003
:1007200004003100F007B1003F0032003E00390004
:10073000020037001048B0003B00310007856A0016
:100740004200A9004220A900F50FB2000570A000E8
:100750004200A900F70FB2000770A0000621B80000
:10076000062CB80083014C00890078004200AF00DD
:100770008100E8004200A900043CB80083014C005D
:1007800081804C00072CB80081004C000000E8007C
:100790000100E0004220AF000100370003003700F5
:1007A0000300E0004220AF000500370001F0A70081
:1007B000030037008381D2008180D2000000E9006D
:1007C000010178004200A9000370A600090037006B
:1007D00007F02F00878161000310B000600149001D
:1007E0000200E00003003A000300E00001003A00CC
:1007F0000000E8000080FD004200A9004220A9009E
:100800008080D3000AF0A70001F0A00002F0A10050
:100810000280FD00814069000380FD0003417800F3
:1008200002007800030037000000200001002000D3
:10083000000037004501200004000900CF127800B5
:10084000CF02780000000600851F7800C500200058
:1008500003000900B51F78008004EB0008002800A1
:100860004300AF0083016C000000E00003003A0089
:10087000FAFF27000A8560004220AE0001057800DB
:100880008A856900010378008303780003067800F5
:100890004220A9004200A9000683D2000680FD0084
:1008A000F60FB2000600E000A10032004220A900CD
:1008B0004200A9008783D2000780FD00F70FB20035
:1008C0000700E0009F0032004220A9004200A9007A
:1008D0000638E1009C003200A30033000900A100AB
:1008E0000910A0000684530007037800F10FB2003E
:1008F0000170A000F30FB2000370A0008702200077
:100900000838E100110033004220A9004200A9008C
:100910008180D3000080D3000804E900FAFF3A0088
:100920000D003700870220000838E100090033007D
:100930004220A9004200A9008381D3000281D30094
:100940000804E900FAFF3A000F00370002007800BF
:1009500083007800430037000BF0A6001100370039
:100960000940A7008C0578000000EA000200320070
:1009700081C0EA00010037008100EA000940A700B9
:100980002B003700070037000BF0A60005003700EA
:100990000201EA000200320083C1EA0001003700D0
:1009A0008301EA00F50FB2004220A9004200A9002D
:1009B0000200400083C048004200AF000930A000A0
:1009C0000900A700090037000910A700010037003F
:1009D0000B0037000BF0A700150037000930A70007
:1009E000290037000960A0001E0037000BF0A700A7
:1009F0000F0037000930A700230037001900370027
:100A00000920A1000BF0A700040037008A05780038
:100A10000930A7001C003700360037000940A0004D
:100A200001C8B2000170A700CDFF37008A05780029
:100A3000F10FB200810370000A0032000170A700BC
:100A4000080037004220A9004200A9000080D2001F
:100A50008180D2000603E9004220AF003100370058
:100A6000F6FF37000900A7008A0578000910A700E3
:100A70008C0578000950A6001A0037000AF0A7007C
:100A80000080A0001B0037004200A80081C0D300F6
:100A90000080D3004200AF000950A0000603E80028
:100AA000200032000950A600080037000000E800CE
:100AB00006003A008140E80004003A0081C0D300FB
:100AC0000080D3000603E800160032000900A700EA
:100AD0008A0578000910A7008C0578004220AF0035
:100AE000100037000960A7008A0578000970A70088
:100AF0008C05780001017000230032000170A10014
:100B00000680FD004220A9004200A9000683D30010
:100B100081006B0001F0A0000BF0A60001F0A10025
:100B200019003700000020000100200016003700E7
:100B30000AF0A70083016C000200780083007800AF
:100B40001100370010003700F30FB2000370A0004F
:100B5000F10FB2000170A0000BF0A7000370A1001C
:100B60000920A00088FF370007045300F10FB200EE
:100B70000170A000F30FB2000370A0000910A100E3
:100B80000900A00067FF37002501200003000900CD
:100B9000CF127800CF027800000006000001780034
:100BA00081017800014078000080FD0000F0A00085
:100BB0008180D2000180FD008180FB00E4082000DC
:100BC00081405200060032000000E00004003200C4
:100BD0004200A9000080D3008100E900FAFF3A003A
:100BE00003F0A600020037000000EA000000370012
:100BF00000000600851F7800861F78001400200082
:100C00000960EF000E92BF00819080000402E800AE
:100C10000402E900030032000000D0008180D2000D
:100C2000FBFF3700641721008402400014002000FD
:100C30000960EF00AE92BF00819580000402E800D9
:100C40000402E900030032000000D0008180D200DD
:100C5000FBFF37000400240004004000900A7800E5
:100C60000E12F8000A12F9001012F8000C12F90026
:100C70006A29EF006C29EF000632EF000832EF001E
:100C8000449080006020E10041003E0004003900F3
:100C900034908000F30320000418E1003C0036008B
:100CA000140020000960EF000A92BF0061908000EC
:100CB0000402E8000402E900030032000000D00052
:100CC0008180D200FBFF3700641721000400400040
:100CD0000002780014007800800278000003EB0026
:100CE00005F0A7000083EB00140020000960EF006E
:100CF0000692BF00419080000402E8000402E9006F
:100D0000030032000000D0008180D200FBFF3700DA
:100D10004422210004004000000278001400780002
:100D20008000EB0000F0A7008080EB00000178005D
:100D3000810178000500780086007800BC0202007E
:100D4000000000006A29B400010078006C89B4003A
:100D50006CA9B70054908000F483B20005003A00FB
:100D60000C12E20003003A000A32EF000C32EF00EE
:100D7000030037000A32EC004220AF000C32EC00D6
:100D80000632EC004220AF000832EC00BCFF370016
:100D90002486200073958000848241001400200086
:100DA0000960EF000E92BF00819080000402E8000D
:100DB0000402E900030032000000D0008180D2006C
:100DC000FBFF370064172100040040001003780087
:100DD0004430DE00804A7800804A7800F490800039
:100DE0006124E10010003A00240020000960EF00B7
:100DF000AE92BF00819580000402E8000402E90081
:100E0000030032000000D0008180D200FBFF3700D9
:100E1000E496200084024000A4962000B41A7800D2
:100E2000B41A78004B0037006A89BF00614B80001C
:100E30008001EB0001F0A7008081EB000301780046
:100E4000748B800004005000848B800084805800E4
:100E5000948B800004015900A48B80008481590088
:100E6000FE02020000000000B2B2B700A1958800A7
:100E7000B292BF00A1958000F28F800003908000A5
:100E80006003020000000000B6B2B700C195880000
:100E90004300A900B692BF00C19580000200200067
:100EA000E32F24002404020000000000BAB2B700BF
:100EB000E1958800BA92BF00E1958000CE0502005E
:100EC0000000000060E8B700240020000960EF0087
:100ED000AE92BF00819580000402E8000402E900A0
:100EE000030032000000D0008180D200FBFF3700F9
:100EF000A4D6200084024000A4962000B41A7800F2
:100F0000B41A7800240020000960EF00AE92BF0000
:100F1000819580000402E8000402E9000300320029
:100F20000000D0008180D200FBFF3700E496200053
:100F3000840240006088BF008042980000C0B30077
:100F40009042980000C0B300A042980000C0B300D7
:100F5000B04298000E12E20006003A001012E200C1
:100F600004003A00F4032000749088001032EF006F
:100F7000030037000E32ED004200AE001032ED00EB
:100F80004F037800CF02780000000600851F78002C
:100F9000861F780000027800810278000000EB00D4
:100FA0008000EB000600A10005F0A6000600370057
:100FB0000600A0000402EA00020032008582EA0076
:100FC000010037008502EA0085017200130032003B
:100FD0000001EB00610B20000270A7000700370042
:100FE0004200A9000482D2008582D2000080D20093
:100FF0000281D2008100E900F7FF3A000180FD0084
:101000004200A9008180D30001F0A1000270A1007C
:10101000814069000600A70001F0A0004F0378009E
:10102000CF02780000000600851F7800C500200070
:1010300004000900B51F78008004EB008384680079
:1010400001037800800278000304780082037800AE
:101050008180D2000180FD008180FB000100E00062
:101060004E0032008381D2000380FD008381FB00AB
:101070000300E000490032000000EB0003C0500014
:1010800003003900F047B00044003100030037008E
:101090001048B1004100390040003200850078005E
:1010A000060178000270A000F20FB200F80FB20043
:1010B0000870A0009A0120008001EB000002EB0004
:1010C00087805000080159000200330004003100FD
:1010D00004003A0087804000080149000100370001
:1010E0000400A0000A05E900070032004200A90040
:1010F0008180D2000281D2004200A9000482D20085
:101100008381D200EEFF37000005EB000380A700CB
:1011100001003700060037004200A9008381D30098
:101120000370A1000482D3000A85D20002003700B8
:101130000000E900190032000AF0A700050039009C
:101140008180D2000281D2008780500008015900BE
:10115000090039000402E80007003A008301E800B2
:1011600005003A000000E8000C00320002003700E1
:101170000000E900090032000080FD008080D300FB
:1011800001F0A00009F0A60001F0A1000370A10089
:1011900081C06900040078000300370000002000CF
:1011A0000100200000003700450120000400090074
:1011B000CF127800CF02780000000600881F780068
:1011C0002801200004000900B81F78000900200051
:1011D0004300AF0019002000891F78000004EB00D5
:1011E0008004EB000005EB008005EB000006EB003F
:1011F0008006EB00E8002000090020001000FA0043
:101200000C377C000884E900FDFF3B0005046A0000
:1012100002003A0007046B00480032000004EB00B3
:101220008006EB008D1F780003F0A6000A0037004F
:10123000CF0678000DF0A0008D1F78008381EA00B2
:101240000281EA008180EA000000EA00E0804800B4
:1012500060014900E081490007F0A6000A0037005C
:10126000CF0678000DF0A2008D1F78008783EA007A
:101270000683EA008582EA000402EA00E0824A006E
:1012800060034B00E0834B000D0420004200A900E6
:101290000080D2008180D2000281D2008381D200FE
:1012A0000884D2008984D2000A85D2008B85D200BE
:1012B0000758E10005003A0006D0E10003003A00BB
:1012C00005C8E10001003A0004C0E1000500390052
:1012D0000404540085845C0006055D0087855D007C
:1012E0004200A800080F7800190798002A07980004
:1012F0003B0798004E049000DE0490006E059000BD
:10130000FE0590000884D2008984D2000A85D200AC
:101310008B85D20048079800590798006A07980003
:101320007B0798001E0478009E0490002E05900014
:10133000BE0590008D06E900D4FF3A004E009000F3
:10134000DE0090006E019000FE019000CF06780054
:101350000DF0A600070037008381EA000281EA0051
:101360008180EA000000EA00E08048006001490056
:10137000E08149000080FA0000003700CF047800C7
:101380000900E000040032000800780089007800BD
:101390000A0178008B017800A801200004000900F0
:1013A0004F1478004F04780000000600851F780075
:1013B000861F7800871F7800C49080006020E100BD
:1013C000CF003E0004003900B490800083BB2000B1
:1013D0000418E100CA0036006E0AF8006611F90030
:1013E000700AF8006811F9006E0AF8006A11F90035
:1013F000700AF8006C11F9008040F8006409F900E7
:101400001404200074958800B032EF0084958000A9
:101410006020E10092003E000400390074958000D5
:10142000F30F20000418E1008D0036002400200096
:101430000960EF00AE92BF00819580000402E800D1
:101440000402E900030032000000D0008180D200D5
:10145000FBFF3700E4962000040040000002780003
:1014600003002000B4197800B4197800648B800060
:101470000120E1001300350003003C00548B800084
:101480000020E1000F003600240020000960EF007A
:10149000AE92BF00819580000402E8000402E900DA
:1014A000030032000000D0008180D200FBFF370033
:1014B000E496200004004000A4162100301A7800B1
:1014C000301A7800240020000960EF00AE92BF00BF
:1014D000819580000402E8000402E9000300320064
:1014E0000000D0008180D200FBFF3700E49620008E
:1014F000040040000002780003002000B4197800C6
:10150000B4197800448B80000120E10013003C00F6
:1015100003003500348B80000020E1000F00310013
:10152000240020000960EF00AE92BF00819580008A
:101530000402E8000402E900030032000000D000C9
:101540008180D200FBFF3700E496200004004000B9
:1015500064162100301A7800301A78001400200038
:101560000960EF00AE92BF00819580000402E800A0
:101570000402E900030032000000D0008180D200A4
:10158000FBFF370004002400040040000002780044
:1015900014007800244B80000020E1000E0036008B
:1015A000140020000960EF00AE92BF00819580001A
:1015B0000402E8000402E900030032000000D00049
:1015C0008180D200FBFF37000400240004004000AB
:1015D000901F78006409F900240020000960EF00E2
:1015E000AE92BF00819580000402E8000402E90089
:1015F000030032000000D0008180D200FBFF3700E2
:10160000E49620000400400000027800030020005F
:10161000B4197800B41978008001EB0001F0A7003C
:101620008081EB00030178006E31B4000100780086
:101630007091B40070B1B700948B80000400490031
:1016400072B1B700A48B80000480490074B1B70068
:10165000AE32EC004220AF00B032EC006BFF37003E
:10166000348B8000538B800003005200448B800039
:10167000638B800083005A00C60702000000000050
:10168000FAB1B700E18F880000002000F137240094
:10169000D28F8000E38F8000140802000000000059
:1016A000FEB1B700019088004300A9006E91BF0011
:1016B000818B8000928B8000A38B8000F40B200034
:1016C000050020000600200007002000DE080200C0
:1016D000000000006EB1B700818B8800928B8800FB
:1016E000A38B88006409F8006609F900E1962000E0
:1016F00002002000FD0109008058EB003400370093
:101700008040F8006409F9001404200094958800D2
:10171000B432EF00A49580006020E10028003E0074
:101720000400390094958000F30F20000418E100B4
:1017300023003600140020000960EF00B292BF00C1
:10174000A19580000402E8000402E90003003200D1
:101750000000D0008180D200FBFF3700040024008D
:10176000040040000002780014007800244B800040
:101770000020E1000E003600140020000960EF0098
:10178000B292BF00A19580000402E8000402E900C3
:10179000030032000000D0008180D200FBFF370040
:1017A0000400240004004000901F78006409F90040
:1017B000B232EC004220AF00B432EC00D5FF37006B
:1017C0006409F8006609F9001632EF001832EF00DC
:1017D0001A32EF001C32EF001E72EF000E32EF00E3
:1017E0001032EF00CF0378004F037800CF0278006B
:1017F00000000600851F7800AED2BF000160EF0038
:10180000B082B200070032001080B200080032003F
:10181000E086B200080032008080B2000F00320083
:101820007400370010C0B30020F2B7007100370019
:101830009460A9006F0037009460A8000421EF00B5
:101840005E08F8000201F90004002800240888005E
:1018500010C0B30020F2B700660037009460A90002
:1018600097C0A90081E0A900040E2000140288009E
:1018700081E0A80041222100020020007F00090031
:101880008058EB00149080000484B20002003A00FB
:101890000412E2003A0032003202AE003700370094
:1018A0004200F80081E0A90042E0EF0081E0A800DA
:1018B000440202000000000081E0A9004200F9009B
:1018C00081E0A800AFF2B700749580004822DE00E6
:1018D000C4C4B20001003A00280037001212E2002E
:1018E00008003A001412E20006003A00AFD2BF002E
:1018F00062E9B70014002000949088001432EF00D1
:101900001E003700AFD2BF0063E9B7001232EF000C
:101910001432EF0063C9BF00804278000B60EF0013
:10192000054078000BE0B7008042EB00050078002E
:101930006209B70068A9B700140020000960EF0031
:101940000292BF00219080000402E8000402E90036
:10195000030032000000D0008180D200FBFF37007E
:101960004422210084024000444B800084029800FD
:101970000232EC004220AF000432EC00C1FF37001D
:101980002492BF00208DB20005003200A08FB2006B
:10199000060032009094B2000700320009003700C0
:1019A00064052D00F44288000800370064052D000E
:1019B000F44288000500370004F42100F442880056
:1019C0000200370004F42100F44288000232EF00E4
:1019D0000432EF0010C0B30020F2B70097C0A80097
:1019E0009460A80081E0A9004220EF0081E0A800F7
:1019F00000003700AE72EF001F72EF00CF027800D8
:101A000000000600404424002005880081E0A80072
:101A10006004200042E7B7007005200042E7B700ED
:101A200042C7A90070F02300A6A6B700500020000E
:101A3000C6A6B7006004200042E7B700700520008A
:101A400042E7B70042C7A80014042000243A8800E7
:101A500024032000343A88005A28EF0004002800AC
:101A60008411880004402000941188003062A8008E
:101A700024022000C41188005E28EF006429EF00D2
:101A80006629EF006829EF006A29EF006C29EF0052
:101A90006631EF006831EF006A31EF006C31EF0022
:101AA0006E31EF007031EF007231EF007431EF00F2
:101AB000FA31EF00FC31EF00FE31EF000032EF00B1
:101AC0006168EF000232EF000432EF000632EF00EF
:101AD0000832EF000A32EF000C32EF000E32EF0056
:101AE0001032EF001232EF001432EF001632EF0026
:101AF0001832EF001A32EF001C32EF006169EF007C
:101B00001E72EF001F72EF002072EF002172EF00D3
:101B10002272EF002372EF0014042000243A8800A0
:101B200024032000343A88000E00FC00101020002E
:101B30003174200082072000A30920008248780029
:101B40008348780043E7B7004800DE002174200096
:101B500062042000730520008248780083487800E2
:101B6000804878002CA3EF000FF82300F0FF23003B
:101B700020A0B700000000005C28EF000FF8230051
:101B8000F0FF230020A0B7000000000001002400A7
:101B900002002000FE0009008058EB00E11F240035
:101BA0001206200012C6B300FE0009008258780019
:101BB0008163EF00D0C0B30082E3B700043020009F
:101BC000441C880081E3A9008063EF000400240026
:101BD000241C8800F40F2000541C880081E3A80016
:101BE0009480A80004F0290024198800044E2800DD
:101BF00004198800E4FF2F00641988002223EF00F5
:101C00002003A9002023A8002003AE00FEFF370018
:101C10000421EF005E08F8000201F900040028002A
:101C20002408880097C0A8009460A80081E0A9005B
:101C30004220EF0081E0A80010C0B3001EF2B70000
:101C40006149E20005003A00D4908000F48FB200B0
:101C500060003A001C12E2005E003A009480A90085
:101C6000A432EF00A632EF00349580006020E1003E
:101C70000F003E000400390024958000F30F20007F
:101C80000418E1000A003600A412F800AE12F900B0
:101C9000A612F800B012F900FA05020000000000D8
:101CA000A432EC004220AF00A632EC00EEFF370079
:101CB000F49080006124E10002003A00D60902009D
:101CC00000000000049180006124E10039003A0026
:101CD000A832EF00AA32EF00549580006020E100A6
:101CE00012003E000400390044958000F30F2000EC
:101CF0000418E1000D003600248620004395800082
:101D000004804100904278003322AF00FEFF37008C
:101D10003402F800E5FF9F003402F900A832EC001D
:101D20004220AF00AA32EC00EBFF3700A832EF00F0
:101D3000AA32EF00549580006020E1001D003E00B3
:101D40000400390044958000F30F20000418E100DE
:101D500018003600240020000960EF00A892BF00A0
:101D6000519580000402E8000402E90003003200FB
:101D70000000D0008180D200FBFF3700E4962000F5
:101D800004004000A4002000301A7800301A7800C7
:101D90003322AF00FEFF37003402F800E5FF9F005A
:101DA0003402F900A832EC004220AF00AA32EC0065
:101DB000E0FF37001E72EF002072EF000E32EF00DE
:101DC0001032EF009480A8006169EF002272EF00EA
:101DD0002172EF001F52E2000400320061C8BF0010
:101DE000AEF2B700FA0B02000000000094FF3700CB
:041DF000FFFF3700BA
:0200000401F009
:10000000CF0000FFCF0000FF070000FF810000FFCE
:10001000270000FF5F0000FFF00000FF430000FF2B
:00000001FF
;DSPIC33FJ64MC802
;CRC=826E  CREATED="07-Nov-22 19:15"
