:080000005E0D04000000000089
:08003400900200000002000030
:040060002402000076
:0400A00066020000F4
:100400004200F8003600F8003200F800801F780043
:10041000200020000C000900B01F780010C0B300BD
:10042000D6F2B7008480A900A00120000C000900CA
:100430004F1078004F0078003200F9003600F900C4
:100440004200F900004006004200F8003600F800C3
:100450003200F800801F7800200020000C00090006
:10046000B01F780085C0A900A00120000C00090081
:100470004F1078004F0078003200F9003600F90084
:100480004200F90000400600851F780005B02400F6
:100490009E010900000000008502E90003003A0007
:1004A0005A28EF0000002000060037003202AE009C
:1004B000F7FF37003202F8005A08F900B011800047
:1004C0003222A900CF027800000006004200F800A6
:1004D0003600F8003200F800801F7800200020006D
:1004E0000C000900B01F7800440202000000000068
:1004F00011E9B70010C0B300D8F2B70087C0A90057
:10050000A00120000C0009004F1078004F00780077
:100510003200F9003600F9004200F9000040060000
:100520004200F8003600F8003200F800801F780022
:10053000200020000C000900B01F7800C9C2A900EB
:10054000CDC2AA002003A9002023A8002003AE00EA
:10055000FEFF37008460A900A00120000C00090004
:100560004F1078004F0078003200F9003600F90093
:100570004200F90000400600851F7800C5002000F9
:1005800003000900B51F78000202B80003F0A600BE
:10059000020037000383B900010037000303B800ED
:1005A0004200A9008502430060844B0001F0A600D0
:1005B00002003700028BB90001003700020BB800BF
:1005C00085024B0008844B000980B000038BB90002
:1005D00008044B0087834C008701780008017800ED
:1005E0008500780004007800250120000300090040
:1005F000CF127800CF02780000000600851F780037
:10060000C500200003000900B51F78000002780033
:100610008102780002037800830378000000EB0079
:100620008000EB000001EB008001EB000800A1005E
:1006300007F0A600050037000600A0000402EA004B
:100640008582EA000683EA008783EA0085046A005F
:1006500002003A0087046B0014003200610D200094
:100660000270A700090037004200A9000482D200EE
:100670008582D2000683D2008783D2000080D20018
:100680000281D2008100E900F5FF3A000180FD00FF
:100690004200A9008180D30001F0A1000270A100F6
:1006A000814069000600A70001F0A000250120009C
:1006B00003000900CF127800CF0278000000060086
:1006C000851F7800C500200004000900B51F7800D0
:1006D000000278008102780083037800020378002A
:1006E0004200A9004220A9008180D2000180FD00C3
:1006F000F10FB2000100E0004B0032004200A900FF
:100700004220A9008381D2000380FD00F30FB200D4
:100710000300E000440032000080FB0001C0410003
:1007200004003100F007B1003F0032003E00390004
:10073000020037001048B0003B00310007856A0016
:100740004200A9004220A900F50FB2000570A000E8
:100750004200A900F70FB2000770A0000621B80000
:10076000062CB80083014C00890078004200AF00DD
:100770008100E8004200A900043CB80083014C005D
:1007800081804C00072CB80081004C000000E8007C
:100790000100E0004220AF000100370003003700F5
:1007A0000300E0004220AF000500370001F0A70081
:1007B000030037008381D2008180D2000000E9006D
:1007C000010178004200A9000370A600090037006B
:1007D00007F02F00878161000310B000600149001D
:1007E0000200E00003003A000300E00001003A00CC
:1007F0000000E8000080FD004200A9004220A9009E
:100800008080D3000AF0A70001F0A00002F0A10050
:100810000280FD00814069000380FD0003417800F3
:1008200002007800030037000000200001002000D3
:10083000000037004501200004000900CF127800B5
:10084000CF02780000000600851F7800C500200058
:1008500003000900B51F78008004EB0008002800A1
:100860004300AF0083016C000000E00003003A0089
:10087000FAFF27000A8560004220AE0001057800DB
:100880008A856900010378008303780003067800F5
:100890004220A9004200A9000683D2000680FD0084
:1008A000F60FB2000600E000A10032004220A900CD
:1008B0004200A9008783D2000780FD00F70FB20035
:1008C0000700E0009F0032004220A9004200A9007A
:1008D0000638E1009C003200A30033000900A100AB
:1008E0000910A0000684530007037800F10FB2003E
:1008F0000170A000F30FB2000370A0008702200077
:100900000838E100110033004220A9004200A9008C
:100910008180D3000080D3000804E900FAFF3A0088
:100920000D003700870220000838E100090033007D
:100930004220A9004200A9008381D3000281D30094
:100940000804E900FAFF3A000F00370002007800BF
:1009500083007800430037000BF0A6001100370039
:100960000940A7008C0578000000EA000200320070
:1009700081C0EA00010037008100EA000940A700B9
:100980002B003700070037000BF0A60005003700EA
:100990000201EA000200320083C1EA0001003700D0
:1009A0008301EA00F50FB2004220A9004200A9002D
:1009B0000200400083C048004200AF000930A000A0
:1009C0000900A700090037000910A700010037003F
:1009D0000B0037000BF0A700150037000930A70007
:1009E000290037000960A0001E0037000BF0A700A7
:1009F0000F0037000930A700230037001900370027
:100A00000920A1000BF0A700040037008A05780038
:100A10000930A7001C003700360037000940A0004D
:100A200001C8B2000170A700CDFF37008A05780029
:100A3000F10FB200810370000A0032000170A700BC
:100A4000080037004220A9004200A9000080D2001F
:100A50008180D2000603E9004220AF003100370058
:100A6000F6FF37000900A7008A0578000910A700E3
:100A70008C0578000950A6001A0037000AF0A7007C
:100A80000080A0001B0037004200A80081C0D300F6
:100A90000080D3004200AF000950A0000603E80028
:100AA000200032000950A600080037000000E800CE
:100AB00006003A008140E80004003A0081C0D300FB
:100AC0000080D3000603E800160032000900A700EA
:100AD0008A0578000910A7008C0578004220AF0035
:100AE000100037000960A7008A0578000970A70088
:100AF0008C05780001017000230032000170A10014
:100B00000680FD004220A9004200A9000683D30010
:100B100081006B0001F0A0000BF0A60001F0A10025
:100B200019003700000020000100200016003700E7
:100B30000AF0A70083016C000200780083007800AF
:100B40001100370010003700F30FB2000370A0004F
:100B5000F10FB2000170A0000BF0A7000370A1001C
:100B60000920A00088FF370007045300F10FB200EE
:100B70000170A000F30FB2000370A0000910A100E3
:100B80000900A00067FF37002501200003000900CD
:100B9000CF127800CF027800000006000001780034
:100BA00081017800014078000080FD0000F0A00085
:100BB0008180D2000180FD008180FB00E4082000DC
:100BC00081405200060032000000E00004003200C4
:100BD0004200A9000080D3008100E900FAFF3A003A
:100BE00003F0A600020037000000EA000000370012
:100BF00000000600851F7800861F7800871F780098
:100C0000881F7800640020000960EF006813F80076
:100C10006C13F9006A13F8006E13F9000402E8007F
:100C20000402E900030032006C33D4006EB3D60036
:100C3000FBFF3700E1222100020020007F000900B5
:100C40008058EB007033EF007233EF00949B80000C
:100C50006020E10027003E0004003900849B8000F2
:100C6000030420000418E1002200360014002000D4
:100C70000960EF007093BF00919B80000402E800C0
:100C80000402E900030032000000D0008180D2009D
:100C9000FBFF3700E422210084024000719B8000AA
:100CA0006C93BF006C33EC004220AF006E33EC005D
:100CB0000003BE00140020000960EF000600BE0023
:100CC0000402E8000402E900030032000000D00042
:100CD0008180D200FBFF37000400240004004000A4
:100CE000900A78007033EC004220AF007233EC00C1
:100CF000D6FF3700640020000960EF006813F80099
:100D00006C13F9006A13F8006E13F9000402E8008E
:100D10000402E900030032006C33D4006EB3D60045
:100D2000FBFF37007033EF007233EF00949B8000BD
:100D30006020E100D8003E0004003900849B800060
:100D4000030420000418E100D3003600C612F800A6
:100D5000C212F900C812F800C412F9001A2AEF00F2
:100D60001C2AEF00BE32EF00C032EF000496800074
:100D70006020E10041003E0004003900F49580004D
:100D8000F30320000418E1003C00360014002000AA
:100D90000960EF00C292BF00219680000402E800C3
:100DA0000402E900030032000000D0008180D2007C
:100DB000FBFF3700E422210004004000000278001D
:100DC00014007800800278000003EB0005F0A70013
:100DD0000083EB00140020000960EF00BE92BF000A
:100DE000019680000402E8000402E90003003200DA
:100DF0000000D0008180D200FBFF3700E42D2100ED
:100E00000400400000027800140078008000EB002D
:100E100000F0A7008080EB000001780081017800DD
:100E20000500780086007800BC0202000000000087
:100E30001A2AB400010078001C8AB4001CAAB7006A
:100E400014968000F483B20005003A00C412E20058
:100E500003003A00C232EF00C432EF000300370053
:100E6000C232EC004220AF00C432EC00BE32EC00D3
:100E70004220AF00C032EC00BCFF3700719B800005
:100E80006C93BF006C33EC004220AF006E33EC007B
:100E900080027800010378002491200084834200BE
:100EA000140020000960EF007093BF00919B800048
:100EB0000402E8000402E900030032000000D00050
:100EC0008180D200FBFF3700E422210004004000B3
:100ED000100478004440DE00804B7800804B78009E
:100EE000B49680004822DE006124E10010003A0040
:100EF000240020000960EF006C93BF00719B80000C
:100F00000402E8000402E900030032000000D000FF
:100F10008180D200FBFF3700E4A120008402400062
:100F2000A4A12000B41A7800B41A78004B0037004E
:100F30001A8ABF00E15080008001EB0001F0A70099
:100F40008081EB00030178003491800004005000A0
:100F5000449180008480580054918000040159001D
:100F60006491800084815900FE02020000000000AC
:100F700074B3B700B19B88007493BF00B19B80002D
:100F8000B2958000C395800060030200000000005D
:100F900078B3B700D19B88004300A9007893BF00C5
:100FA000D19B800002002000E32F240024040200D3
:100FB000000000007CB3B700F19B88007C93BF0069
:100FC000F19B8000CE0502000000000010E9B70090
:100FD000240020000960EF006C93BF00719B80002B
:100FE0000402E8000402E900030032000000D0001F
:100FF0008180D200FBFF3700E4E120008402400042
:10100000A4A12000B41A7800B41A780024002000AB
:101010000960EF006C93BF00719B80000402E80040
:101020000402E900030032000000D0008180D200F9
:10103000FBFF3700E4A12000840240001089BF00BC
:101040008042980000C0B3009042980000C0B300F6
:10105000A042980000C0B300B0429800C612E2005F
:1010600006003A00C812E20004003A00F40320002F
:1010700034968800C832EF0003003700C632ED0016
:101080004200AE00C832ED007033EC004220AF00E9
:101090007233EC0025FF37004F047800CF0378004F
:1010A0004F037800CF02780000000600851F78000B
:1010B000861F780000027800810278000000EB00B3
:1010C0008000EB000600A10005F0A6000600370036
:1010D0000600A0000402EA00020032008582EA0055
:1010E000010037008502EA0085017200130032001A
:1010F0000001EB00610B20000270A7000700370021
:101100004200A9000482D2008582D2000080D20071
:101110000281D2008100E900F7FF3A000180FD0062
:101120004200A9008180D30001F0A1000270A1005B
:10113000814069000600A70001F0A0004F0378007D
:10114000CF02780000000600851F7800C50020004F
:1011500004000900B51F78008004EB008384680058
:10116000010378008002780003047800820378008D
:101170008180D2000180FD008180FB000100E00041
:101180004E0032008381D2000380FD008381FB008A
:101190000300E000490032000000EB0003C05000F3
:1011A00003003900F047B00044003100030037006D
:1011B0001048B1004100390040003200850078003D
:1011C000060178000270A000F20FB200F80FB20022
:1011D0000870A0009A0120008001EB000002EB00E3
:1011E00087805000080159000200330004003100DC
:1011F00004003A00878040000801490001003700E0
:101200000400A0000A05E900070032004200A9001E
:101210008180D2000281D2004200A9000482D20063
:101220008381D200EEFF37000005EB000380A700AA
:1012300001003700060037004200A9008381D30077
:101240000370A1000482D3000A85D2000200370097
:101250000000E900190032000AF0A700050039007B
:101260008180D2000281D20087805000080159009D
:10127000090039000402E80007003A008301E80091
:1012800005003A000000E8000C00320002003700C0
:101290000000E900090032000080FD008080D300DA
:1012A00001F0A00009F0A60001F0A1000370A10068
:1012B00081C06900040078000300370000002000AE
:1012C0000100200000003700450120000400090053
:1012D000CF127800CF02780000000600881F780047
:1012E0002801200004000900B81F78000900200030
:1012F0004300AF0019002000891F78000004EB00B4
:101300008004EB000005EB008005EB000006EB001D
:101310008006EB00E8002000090020001000FA0021
:101320000C377C000884E900FDFF3B0005046A00DF
:1013300002003A0007046B00480032000004EB0092
:101340008006EB008D1F780003F0A6000A0037002E
:10135000CF0678000DF0A0008D1F78008381EA0091
:101360000281EA008180EA000000EA00E080480093
:1013700060014900E081490007F0A6000A0037003B
:10138000CF0678000DF0A2008D1F78008783EA0059
:101390000683EA008582EA000402EA00E0824A004D
:1013A00060034B00E0834B000D0420004200A900C5
:1013B0000080D2008180D2000281D2008381D200DD
:1013C0000884D2008984D2000A85D2008B85D2009D
:1013D0000758E10005003A0006D0E10003003A009A
:1013E00005C8E10001003A0004C0E1000500390031
:1013F0000404540085845C0006055D0087855D005B
:101400004200A800080F7800190798002A079800E2
:101410003B0798004E049000DE0490006E0590009B
:10142000FE0590000884D2008984D2000A85D2008B
:101430008B85D20048079800590798006A079800E2
:101440007B0798001E0478009E0490002E059000F3
:10145000BE0590008D06E900D4FF3A004E009000D2
:10146000DE0090006E019000FE019000CF06780033
:101470000DF0A600070037008381EA000281EA0030
:101480008180EA000000EA00E08048006001490035
:10149000E08149000080FA0000003700CF047800A6
:1014A0000900E0000400320008007800890078009C
:1014B0000A0178008B017800A801200004000900CF
:1014C0004F1478004F04780000000600851F780054
:1014D000861F7800871F7800849680006020E100D6
:1014E000CF003E00040039007496800083BB2000CA
:1014F0000418E100CA0036001E0BF8001E12F900A5
:10150000200BF8002012F9001E0BF8002212F9003F
:10151000200BF8002412F9008040F800140AF900AA
:1015200014042000449B88006A33EF00549B800021
:101530006020E10092003E0004003900449B8000DE
:10154000031020000418E1008D0036002400200064
:101550000960EF006893BF00519B80000402E8001F
:101560000402E900030032000000D0008180D200B4
:10157000FBFF3700E4A120000400400000027800D7
:1015800003002000B4197800B41978002491800079
:101590000120E1001300350003003C00149180009D
:1015A0000020E1000F003600240020000960EF0059
:1015B0006893BF00519B80000402E8000402E90028
:1015C000030032000000D0008180D200FBFF370012
:1015D000E4A120000400400024222100301A7800F9
:1015E000301A7800240020000960EF006893BF00E3
:1015F000519B80000402E8000402E900030032006D
:101600000000D0008180D200FBFF3700E4A1200061
:10161000040040000002780003002000B4197800A4
:10162000B4197800049180000120E10013003C000F
:1016300003003500F49080000020E1000F0031002D
:10164000240020000960EF006893BF00519B8000D8
:101650000402E8000402E900030032000000D000A8
:101660008180D200FBFF3700E4A12000040040008D
:10167000E4212100301A7800301A7800140020008C
:101680000960EF006893BF00519B80000402E800EE
:101690000402E900030032000000D0008180D20083
:1016A000FBFF370004002400040040000002780023
:1016B00014007800A45080000020E1000E003600E5
:1016C000140020000960EF006893BF00519B800068
:1016D0000402E8000402E900030032000000D00028
:1016E0008180D200FBFF370004002400040040008A
:1016F000901F7800140AF900240020000960EF0010
:101700006893BF00519B80000402E8000402E900D6
:10171000030032000000D0008180D200FBFF3700C0
:10172000E4A1200004004000000278000300200033
:10173000B4197800B41978008001EB0001F0A7001B
:101740008081EB00030178002632B40001007800AC
:101750002892B40028B2B7005491800004004900D8
:101760002AB2B70064918000048049002CB2B7000F
:101770006833EC004220AF006A33EC006BFF3700A7
:10178000F4908000139180000300520004918000C7
:101790002391800083005A005608020000000000D8
:1017A000B2B2B700A195880000002000F1372400F4
:1017B00092958000A3958000A4080200000000001C
:1017C000B6B2B700C19588004300A9002692BF00B9
:1017D000419180005291800063918000040C2000B0
:1017E0000500200006002000070020006E0902000E
:1017F0000000000026B2B700419188005291880095
:1018000063918800140AF800160AF900E1A120008B
:1018100002002000FF0109008058EB00340037006F
:101820008040F800140AF90014042000649B88002A
:101830006E33EF00749B80006020E10028003E00C2
:1018400004003900649B8000031020000418E100AC
:1018500023003600140020000960EF006C93BF00E5
:10186000719B80000402E8000402E90003003200DA
:101870000000D0008180D200FBFF3700040024006C
:10188000040040000002780014007800A45080009A
:101890000020E1000E003600140020000960EF0077
:1018A0006C93BF00719B80000402E8000402E90011
:1018B000030032000000D0008180D200FBFF37001F
:1018C0000400240004004000901F7800140AF9006E
:1018D0006C33EC004220AF006E33EC00D5FF3700D4
:1018E000140AF800160AF900CE32EF00D032EF00E9
:1018F000D232EF00D432EF00D772EF00C632EF00E1
:10190000C832EF00CF0378004F037800CF02780091
:1019100000000600851F780068D3BF000160EF005B
:10192000B082B200070032001080B200080032001E
:10193000E086B200080032008080B2000F00320062
:101940005900370010C0B300DAF2B7005600370074
:101950009460A900540037009460A8000421EF00AF
:101960000E09F8000201F90004002800240888008C
:1019700010C0B300DAF2B7004B0037009460A90042
:1019800097C0A90081E0A900040E2000140288007D
:1019900081E0A800D49580000484B20002003A00DF
:1019A000BC12E200360032003202AE0033003700D3
:1019B0004200F80081E0A90042E0EF0081E0A800C9
:1019C000440202000000000081E0A9004200F9008A
:1019D00081E0A80069F3B700449B80004822DE0044
:1019E000C4C4B20001003A0024003700CA12E20069
:1019F00008003A00CC12E20006003A0069D3BF00AA
:101A000012EAB700CA32EC004220AF00CC32EC0040
:101A10001A00370069D3BF0013EAB700CA32EF00DB
:101A2000CC32EF000043EB008042EB000500780071
:101A3000120AB70018AAB700140020000960EF00CE
:101A4000BA92BF00E19580000402E8000402E900B8
:101A5000030032000000D0008180D200FBFF37007D
:101A6000E42D210084024000C450800084029800CC
:101A7000BA32EC004220AF00BC32EC00C5FF3700A8
:101A8000BA32EF00BC32EF0010C0B300DAF2B70098
:101A900097C0A8009460A80081E0A9004220EF0050
:101AA00081E0A80000003700A0C0B30068F3B700D1
:101AB000D872EF00CF0278000000060040442400F6
:101AC0002005880081E0A8006004200042E7B700FC
:101AD0007005200042E7B70042C7A90070F023005C
:101AE000A6A6B70050002000C6A6B70060042000DC
:101AF00042E7B7007005200042E7B70042C7A800E0
:101B000014042000243A880024032000343A88007A
:101B10005A28EF00040028008411880004402000A7
:101B2000941188003062A80024022000C4118800AB
:101B30000E29EF00142AEF00162AEF00182AEF00F2
:101B40001A2AEF001C2AEF001E32EF002032EF00AD
:101B50002232EF002432EF002632EF002832EF006D
:101B60002A32EF002C32EF00B232EF00B432EF0035
:101B7000B632EF00B832EF001169EF00BA32EF0071
:101B8000BC32EF00BE32EF00C032EF00C232EF00D5
:101B9000C432EF00C632EF00C832EF00CA32EF00A5
:101BA000CC32EF00CE32EF00D032EF00D232EF0075
:101BB000D432EF00D672EF00D772EF00D872EF0088
:101BC000D972EF00DA72EF00DB72EF00DC72EF0027
:101BD00014042000243A880024032000343A8800AA
:101BE0000E00FC001010200031742000820720003D
:101BF000A3092000824878008348780043E7B700B3
:101C00004800DE00217420006204200073052000DB
:101C10008248780083487800804878002CA3EF0041
:101C20000FF82300F0FF230020A0B7000000000001
:101C300077003700C00608005C0000004BF03F0052
:101C40005C0A5800F63B8F0000C03C008B28AC00BB
:101C50003CBEF6003FD2D50044168C0015D7BF001D
:101C600069005A002E1B8700993F9A005FAD4B0018
:101C700091E40100C05D11002F92E40081FB3F0060
:101C800038DA9100809DC500E0BF6F0012C0B4003B
:101C9000C309AB003F6BC100034EC100B545BF0097
:101CA000F7400500FF005C00EF3FF300A3E2F70000
:101CB000D7FF010040C0B400FF053C0058FC3F00C6
:101CC0003BD3C000B5BA8C00E23F3900D3C73D001A
:101CD0004179B2003F870D003C50D000AF623F0019
:101CE000304B8D00A282AA0004400900A0404A00A7
:101CF0000576030040EC9E003788A60044F03F00C4
:101D00008F128D00299A5B00C73F0E00E0807C0097
:101D1000A1D886003F294B00FB95C200371A3F002F
:101D2000000080008012DE00D2005900FF6AFF0030
:101D300065FF5500FF40FF002BFF1900FF0DFF005E
:101D40000AFF1100FF26FF0049FF7B00FFBFFF00D5
:101D50001300780000ED00007001FF000198020000
:101D60003703D800037904001605A90005300600E2
:101D7000A7060A00075707008B07A60007A607005B
:101D80008B075700070A0700A706300006A90500C1
:101D90001605790004D803003703980002FF0100FC
:101DA0007001ED00007800001300BF00FF7BFF0012
:101DB00049FF2600FF11FF000AFF0D00FF19FF0079
:101DC0002BFF4000FF55FF0065FF6A00FF59FF0031
:101DD000D2000000000000000201E8006110E100F4
:101DE00004003A009101BA003182BA0006C0BF0077
:101DF000000006006210E10002003A0007C0BF00C8
:101E00000000060008C0BF000001EB000000060053
:101E1000060020000000200090018800A0E12000C2
:101E2000800078000001EB00EC0E020000000000D2
:101E30000BE0B700EC0E0200000000000AE0B70063
:101E40000500E0001900320005F0A6000700370089
:101E5000EC0E0200000000000DE0B700EC0E0200E6
:101E6000000000000CE0B70005F0A10005E0A600AE
:101E70000800370005E0A1008502E900EC0E020031
:101E8000000000008043780005800900075B7800AF
:101E9000E5FF3700EC0E020000000000005B780058
:101EA0008502E900FBFF3A00DFFF37000100240054
:101EB00002002000FF0009008058EB0001202400F0
:101EC0001206200012C6B300FF00090082587800F5
:101ED0008163EF00D0C0B30082E3B700043020007C
:101EE000441C880081E3A9008063EF000400240003
:101EF000241C880004102000541C880081E3A800E2
:101F00009480A80004F0290024198800044E2800B9
:101F100004198800E4FF2F00641988002223EF00D1
:101F20002003A9002023A8002003AE00FEFF3700F5
:101F300064052D00744888000421EF000E09F800A4
:101F40000201F900040028002408880097C0A800B6
:101F50009460A80081E0A9004220EF0081E0A80081
:101F600010C0B300D7F2B700D652E20005003A0025
:101F7000949680000490B20060003A00D412E2000F
:101F80005E003A009480A9005E33EF006033EF00FA
:101F9000049B80006020E1000E003E000300390039
:101FA000F49A80006420E1000A0031005E13F8001A
:101FB0006813F9006013F8006A13F900FA050200CB
:101FC000000000005E33EC004220AF006033EC0004
:101FD000EFFF3700B49680004822DE006124E10064
:101FE00003003A00660A020000000000000037000B
:101FF000D49680006124E10039003A006233EF009A
:102000006433EF00249B80006020E10012003E005A
:1020100004003900149B8000031020000418E10024
:102020000D00360024912000139B800004804100A5
:10203000904278003322AF00FEFF37003402F800F0
:10204000E5FF9F003402F9006233EC004220AF004C
:102050006433EC00EBFF37006233EF006433EF00D2
:10206000249B80006020E1001D003E000400390038
:10207000149B8000031020000418E10018003600B3
:10208000240020000960EF006293BF00219B8000C4
:102090000402E8000402E900030032000000D0005E
:1020A0008180D200FBFF3700E4A120000400400043
:1020B000A4002000301A7800301A78003322AF00D4
:1020C000FEFF37003402F800E5FF9F003402F900FC
:1020D0006233EC004220AF006433EC00E0FF3700D5
:1020E000DA72EF00C632EF00C832EF009480A80029
:1020F000D672EF00DC72EF00DB72EF00D852E20024
:102100000400320011C9BF0068F3B7008A0C020056
:0C2110000000000094FF3700FFFF3700C4
:0200000401F009
:10000000CF0000FFCF0000FF070000FF810000FFCE
:10001000270000FF5F0000FFF00000FF430000FF2B
:00000001FF
;DSPIC33FJ64MC802
;CRC=E049  CREATED="01-Nov-22 21:26"
