:08000000340F040000000000B1
:080034007C0200000002000044
:0400A0005202000008
:100400004200F8003600F8003200F800801F780043
:10041000200020000C000900B01F7800546E8000FE
:100420004822DE006224E10002003200CD4DE200ED
:1004300002003A0010C0B30007E9B7008480A900A9
:10044000A00120000C0009004F1078004F00780038
:100450003200F9003600F9004200F90000400600C1
:10046000851F780005B024009E01090000000000EF
:100470008502E90003003A000028EF000000200098
:10048000060037003202AE00F7FF37003202F800F4
:100490000008F900B01180003222A900CF027800D4
:1004A000000006004200F8003600F8003200F800B4
:1004B000801F7800200020000C000900B01F780089
:1004C000300202000000000007E8B70010C0B300CF
:1004D000C9EDB70087C0A900A00120000C000900E9
:1004E0004F1078004F0078003200F9003600F90014
:1004F0004200F900004006004200F8003600F80013
:100500003200F800801F7800200020000C00090055
:10051000B01F7800C9C2A900CDC2AA00446E8000F5
:100520006124E10002003200CD4DE20008003A00F3
:100530002003A9002023A8002003AE00FEFF3700FF
:10054000C42DEC004220AF00C62DEC004300370064
:100550007A2EEF00CC4DE20007003A0001002400A3
:1005600002002000FD0109008058EB00CB6DEF0078
:1005700010C0B300CCEDB700546E80004822DE00FE
:100580006224E10012003200646E80006224E10007
:100590000800320081E3A9008063EF00040024001A
:1005A000241C8800F40F2000541C880081E3A8005C
:1005B0009480A8002003A9002023A8002003AE00F7
:1005C000FEFF3700051880004428DE007AAEB70031
:1005D0007A8EBF000C09E30009003A00CB4DE2001F
:1005E00007003A007A0EF800A00DF90020C0B30011
:1005F000CCEDB70010C0B300CBEDB700170037004B
:10060000A08DBF00D47380000020E10009003600F7
:10061000546E80004822DE006124E10005003A00AB
:100620007A0EF800A20DF90020C0B300CBEDB700A0
:100630000A003700546E80004822DE006224E10088
:1006400005003A002003A9002023A8002003AE00E3
:10065000FEFF370001003700CC6DEF008460A90079
:10066000A00120000C0009004F1078004F00780016
:100670003200F9003600F9004200F900004006009F
:1006800097C0A8009460A80081E0A9004220EF0074
:1006900081E0A80000000600851F7800C50020004A
:1006A00003000900B51F78000202B80003F0A6009D
:1006B000020037000383B900010037000303B800CC
:1006C0004200A9008502430060844B0001F0A600AF
:1006D00002003700028BB90001003700020BB8009E
:1006E00085024B0008844B000980B000038BB900E1
:1006F00008044B0087834C008701780008017800CC
:10070000850078000400780025012000030009001E
:10071000CF127800CF02780000000600851F780015
:10072000C500200003000900B51F78000002780012
:100730008102780002037800830378000000EB0058
:100740008000EB000001EB008001EB000800A1003D
:1007500007F0A600050037000600A0000402EA002A
:100760008582EA000683EA008783EA0085046A003E
:1007700002003A0087046B0014003200610D200073
:100780000270A700090037004200A9000482D200CD
:100790008582D2000683D2008783D2000080D200F7
:1007A0000281D2008100E900F5FF3A000180FD00DE
:1007B0004200A9008180D30001F0A1000270A100D5
:1007C000814069000600A70001F0A000250120007B
:1007D00003000900CF127800CF0278000000060065
:1007E000851F7800C500200004000900B51F7800AF
:1007F0000002780081027800830378000203780009
:100800004200A9004220A9008180D2000180FD00A1
:10081000F10FB2000100E0004B0032004200A900DD
:100820004220A9008381D2000380FD00F30FB200B3
:100830000300E000440032000080FB0001C04100E2
:1008400004003100F007B1003F0032003E003900E3
:10085000020037001048B0003B00310007856A00F5
:100860004200A9004220A900F50FB2000570A000C7
:100870004200A900F70FB2000770A0000621B800DF
:10088000062CB80083014C00890078004200AF00BC
:100890008100E8004200A900043CB80083014C003C
:1008A00081804C00072CB80081004C000000E8005B
:1008B0000100E0004220AF000100370003003700D4
:1008C0000300E0004220AF000500370001F0A70060
:1008D000030037008381D2008180D2000000E9004C
:1008E000010178004200A9000370A600090037004A
:1008F00007F02F00878161000310B00060014900FC
:100900000200E00003003A000300E00001003A00AA
:100910000000E8000080FD004200A9004220A9007C
:100920008080D3000AF0A70001F0A00002F0A1002F
:100930000280FD00814069000380FD0003417800D2
:1009400002007800030037000000200001002000B2
:10095000000037004501200004000900CF12780094
:10096000CF02780000000600851F7800C500200037
:1009700003000900B51F78008004EB000800280080
:100980004300AF0083016C000000E00003003A0068
:10099000FAFF27000A8560004220AE0001057800BA
:1009A0008A856900010378008303780003067800D4
:1009B0004220A9004200A9000683D2000680FD0063
:1009C000F60FB2000600E000A10032004220A900AC
:1009D0004200A9008783D2000780FD00F70FB20014
:1009E0000700E0009F0032004220A9004200A90059
:1009F0000638E1009C003200A30033000900A1008A
:100A00000910A0000684530007037800F10FB2001C
:100A10000170A000F30FB2000370A0008702200055
:100A20000838E100110033004220A9004200A9006B
:100A30008180D3000080D3000804E900FAFF3A0067
:100A40000D003700870220000838E100090033005C
:100A50004220A9004200A9008381D3000281D30073
:100A60000804E900FAFF3A000F003700020078009E
:100A700083007800430037000BF0A6001100370018
:100A80000940A7008C0578000000EA00020032004F
:100A900081C0EA00010037008100EA000940A70098
:100AA0002B003700070037000BF0A60005003700C9
:100AB0000201EA000200320083C1EA0001003700AF
:100AC0008301EA00F50FB2004220A9004200A9000C
:100AD0000200400083C048004200AF000930A0007F
:100AE0000900A700090037000910A700010037001E
:100AF0000B0037000BF0A700150037000930A700E6
:100B0000290037000960A0001E0037000BF0A70085
:100B10000F0037000930A700230037001900370005
:100B20000920A1000BF0A700040037008A05780017
:100B30000930A7001C003700360037000940A0002C
:100B400001C8B2000170A700CDFF37008A05780008
:100B5000F10FB200810370000A0032000170A7009B
:100B6000080037004220A9004200A9000080D200FE
:100B70008180D2000603E9004220AF003100370037
:100B8000F6FF37000900A7008A0578000910A700C2
:100B90008C0578000950A6001A0037000AF0A7005B
:100BA0000080A0001B0037004200A80081C0D300D5
:100BB0000080D3004200AF000950A0000603E80007
:100BC000200032000950A600080037000000E800AD
:100BD00006003A008140E80004003A0081C0D300DA
:100BE0000080D3000603E800160032000900A700C9
:100BF0008A0578000910A7008C0578004220AF0014
:100C0000100037000960A7008A0578000970A70066
:100C10008C05780001017000230032000170A100F2
:100C20000680FD004220A9004200A9000683D300EF
:100C300081006B0001F0A0000BF0A60001F0A10004
:100C400019003700000020000100200016003700C6
:100C50000AF0A70083016C0002007800830078008E
:100C60001100370010003700F30FB2000370A0002E
:100C7000F10FB2000170A0000BF0A7000370A100FB
:100C80000920A00088FF370007045300F10FB200CD
:100C90000170A000F30FB2000370A0000910A100C2
:100CA0000900A00067FF37002501200003000900AC
:100CB000CF127800CF027800000006000001780013
:100CC00081017800014078000080FD0000F0A00064
:100CD0008180D2000180FD008180FB00E4082000BB
:100CE00081405200060032000000E00004003200A3
:100CF0004200A9000080D3008100E900FAFF3A0019
:100D000003F0A600020037000000EA0000003700F0
:100D100000000600851F7800861F78001400200060
:100D20000960EF00B88DBF00D16D80000402E800BB
:100D30000402E900030032000000D0008180D200EC
:100D4000FBFF370004D22000840240001400200082
:100D50000960EF00588EBF00D17280000402E800E5
:100D60000402E900030032000000D0008180D200BC
:100D7000FBFF37000400240004004000900A7800C4
:100D8000B80DF800B40DF900BA0DF800B60DF90071
:100D90001029EF001229EF00B02DEF00B22DEF0067
:100DA000946D80006020E10041003E0004003900A5
:100DB000846D8000F30320000418E1003C0036003D
:100DC000140020000960EF00B48DBF00B16D8000F9
:100DD0000402E8000402E900030032000000D00031
:100DE0008180D200FBFF370004D2200004004000C5
:100DF0000002780014007800800278000003EB0005
:100E000005F0A7000083EB00140020000960EF004C
:100E1000B08DBF00916D80000402E8000402E9007B
:100E2000030032000000D0008180D200FBFF3700B9
:100E3000E4DC200004004000000278001400780088
:100E40008000EB0000F0A7008080EB00000178003C
:100E50008101780005007800860078004C030200CC
:100E6000000000001029B400010078001289B400CD
:100E700012A9B700A46D8000F483B20005003A0007
:100E8000B60DE20003003A00B42DEF00B62DEF00DE
:100E900003003700B42DEC004220AF00B62DEC006B
:100EA000B02DEC004220AF00B22DEC00BCFF3700AB
:100EB00084802000C37280008482410014002000DE
:100EC0000960EF00B88DBF00D16D80000402E8001A
:100ED0000402E900030032000000D0008180D2004B
:100EE000FBFF370004D2200004004000100378000C
:100EF0004430DE00804A7800804A7800446E8000EA
:100F00006124E10010003A00240020000960EF0095
:100F1000588EBF00D17280000402E8000402E9008C
:100F2000030032000000D0008180D200FBFF3700B8
:100F3000449120008402400004912000B41A7800FB
:100F4000B41A78003C0037001089BF009148800037
:100F50008001EB0001F0A7008081EB000301780025
:100F6000C468800004005000D46880008480580069
:100F7000E468800004015900F4688000848159000D
:100F80008E030200000000005CAEB700F172880022
:100F90005C8EBF00F1728000426D8000536D800056
:100FA000F00302000000000060AEB700117388007B
:100FB0004300A900608EBF00117380000200200072
:100FC000E32F2400B40402000000000064AEB70068
:100FD00031738800648EBF00317380005E060200AA
:100FE0000000000006E8B700240020000960EF00C0
:100FF000588EBF00D17280000402E8000402E900AC
:10100000030032000000D0008180D200FBFF3700D7
:1010100044912000840240000688BF00804298006E
:1010200000C0B3009042980000C0B300A0429800F6
:1010300000C0B300B0429800B80DE20006003A00CC
:10104000BA0DE20004003A00F4032000C46D8800E9
:10105000BA2DEF0003003700B82DED004200AE00BE
:10106000BA2DED004F037800CF0278000000060093
:10107000851F7800861F78000002780081027800C2
:101080000000EB008000EB000600A10005F0A600C8
:10109000060037000600A0000402EA000200320049
:1010A0008582EA00010037008502EA0085017200AE
:1010B000130032000001EB00610B20000270A7005A
:1010C000070037004200A9000482D2008582D200C6
:1010D0000080D2000281D2008100E900F7FF3A00CF
:1010E0000180FD004200A9008180D30001F0A10031
:1010F0000270A100814069000600A70001F0A00075
:101100004F037800CF02780000000600851F7800AA
:10111000C500200004000900B51F78008004EB0022
:10112000838468000103780080027800030478005B
:10113000820378008180D2000180FD008180FB0065
:101140000100E0004E0032008381D2000380FD00E8
:101150008381FB000300E000490032000000EB0047
:1011600003C0500003003900F047B00044003100D4
:10117000030037001048B100410039004000320040
:1011800085007800060178000270A000F20FB2001E
:10119000F80FB2000870A0009A0120008001EB0057
:1011A0000002EB0087805000080159000200330064
:1011B0000400310004003A00878040000801490023
:1011C000010037000400A0000A05E9000700320012
:1011D0004200A9008180D2000281D2004200A90011
:1011E0000482D2008381D200EEFF37000005EB00BD
:1011F0000380A70001003700060037004200A90065
:101200008381D3000370A1000482D3000A85D20039
:10121000020037000000E900190032000AF0A700C0
:10122000050039008180D2000281D2008780500001
:1012300008015900090039000402E80007003A00DB
:101240008301E80005003A000000E8000C003200CD
:10125000020037000000E900090032000080FD00B4
:101260008080D30001F0A00009F0A60001F0A100E9
:101270000370A10081C069000400780003003700FA
:101280000000200001002000000037004501200080
:1012900004000900CF127800CF0278000000060099
:1012A000881F78002801200004000900B81F78007A
:1012B000090020004300AF0019002000891F7800BA
:1012C0000004EB008004EB000005EB008005EB0060
:1012D0000006EB008006EB00E8002000090020007B
:1012E0001000FA000C377C000884E900FDFF3B0089
:1012F00005046A0002003A0007046B00480032004F
:101300000004EB008006EB008D1F780003F0A600C0
:101310000A003700CF0678000DF0A0008D1F78007E
:101320008381EA000281EA008180EA000000EA008D
:10133000E080480060014900E081490007F0A60014
:101340000A003700CF0678000DF0A2008D1F78004C
:101350008783EA000683EA008582EA000402EA0045
:10136000E0824A0060034B00E0834B000D04200044
:101370004200A9000080D2008180D2000281D20008
:101380008381D2000884D2008984D2000A85D200E9
:101390008B85D2000758E10005003A0006D0E10035
:1013A00003003A0005C8E10001003A0004C0E10072
:1013B000050039000404540085845C0006055D00C6
:1013C00087855D004200A800080F78001907980083
:1013D0002A0798003B0798004E049000DE04900016
:1013E0006E059000FE0590000884D2008984D2002A
:1013F0000A85D2008B85D2004807980059079800CB
:101400006A0798007B0798001E0478009E049000ED
:101410002E059000BE0590008D06E900D4FF3A002D
:101420004E009000DE0090006E019000FE019000E2
:10143000CF0678000DF0A600070037008381EA0090
:101440000281EA008180EA000000EA00E0804800B2
:1014500060014900E08149000080FA000000370087
:10146000CF0478000900E000040032000800780092
:10147000890078000A0178008B017800A80120001B
:10148000040009004F1478004F04780000000600A3
:10149000851F7800861F7800871F7800146E8000F3
:1014A0006020E100CF003E0004003900046E80009F
:1014B00083BB20000418E100CA003600140AF800BB
:1014C000100DF900160AF800120DF900140AF800C0
:1014D000140DF900160AF800160DF9008040F80006
:1014E0000A09F90014042000C47288005A2EEF0083
:1014F000D47280006020E10092003E0004003900B8
:10150000C4728000F30F20000418E1008D00360043
:10151000240020000960EF00588EBF00D1728000C7
:101520000402E8000402E900030032000000D000D9
:101530008180D200FBFF370044912000040040006E
:101540000002780003002000B4197800B419780074
:10155000B46880000120E1001300350003003C0066
:10156000A46880000020E1000F0036002400200065
:101570000960EF00588EBF00D17280000402E800BD
:101580000402E900030032000000D0008180D20094
:10159000FBFF3700449120000400400044D12000AC
:1015A000301A7800301A7800240020000960EF001B
:1015B000588EBF00D17280000402E8000402E900E6
:1015C000030032000000D0008180D200FBFF370012
:1015D0004491200004004000000278000300200035
:1015E000B4197800B4197800946880000120E100F3
:1015F00013003C0003003500846880000020E100F7
:101600000F003100240020000960EF00588EBF0059
:10161000D17280000402E8000402E90003003200F5
:101620000000D0008180D200FBFF370044912000F1
:101630000400400004D12000301A7800301A7800ED
:10164000140020000960EF00588EBF00D1728000A6
:101650000402E8000402E900030032000000D000A8
:101660008180D200FBFF370004002400040040000A
:101670000002780014007800544880000020E10047
:101680000E003600140020000960EF00588EBF00E5
:10169000D17280000402E8000402E9000300320075
:1016A0000000D0008180D200FBFF3700040024003E
:1016B00004004000901F78000A09F900240020006F
:1016C0000960EF00588EBF00D17280000402E8006C
:1016D0000402E900030032000000D0008180D20043
:1016E000FBFF370044912000040040000002780016
:1016F00003002000B4197800B41978008001EB00D1
:1017000001F0A7008081EB0003017800182DB400E0
:10171000010078001A8DB4001AADB700E4688000AB
:10172000040049001CADB700F46880000480490043
:101730001EADB700582EEC004220AF005A2EEC0030
:101740006BFF370084688000A368800003005200AC
:1017500094688000B368800083005A003808020053
:1017600000000000A4ADB700316D8800000020002B
:10177000F1372400226D8000336D8000860802005E
:1017800000000000A8ADB700516D88004300A9001B
:10179000188DBF00D1688000E2688000F368800087
:1017A000F40B2000050020000600200007002000A8
:1017B000500902000000000018ADB700D168880091
:1017C000E2688800F36888000A09F8000C09F9004B
:1017D0004191200002002000FD0109008058EB002B
:1017E000340037008040F8000A09F9001404200092
:1017F000E47288005E2EEF00F47280006020E10049
:1018000028003E0004003900E4728000F30F20003D
:101810000418E10023003600140020000960EF00E6
:101820005C8EBF00F17280000402E8000402E9004F
:10183000030032000000D0008180D200FBFF37009F
:101840000400240004004000000278001400780026
:10185000544880000020E1000E00360014002000F3
:101860000960EF005C8EBF00F17280000402E800A6
:101870000402E900030032000000D0008180D200A1
:10188000FBFF37000400240004004000901F780094
:101890000A09F9005C2EEC004220AF005E2EEC003D
:1018A000D5FF37000A09F8000C09F900C02DEF0038
:1018B000C22DEF00C42DEF00C62DEF00C86DEF0064
:1018C000B82DEF00BA2DEF00CF0378004F0378005A
:1018D000CF027800000006009460A90097C0A9001C
:1018E00081E0A900040E20001402880081E0A80015
:1018F00000000600851F780058CEBF000160EF0091
:10190000B082B2000F0032001080B200100032002E
:10191000E086B200100032008080B2001700320072
:101920008086B2007A0032001080B200A800320037
:101930006080B200D40032003086B200E400320091
:101940004501370010C0B300CAEDB70042013700AF
:101950009460A900400137009460A8000421EF00C2
:101960000408F8000201F900040028002408880097
:1019700010C0B300CAEDB700370137006C0C02008D
:1019800000000000E1DC2000020020007F000900D0
:101990008058EB00646D80000484B20002003A00BD
:1019A000AE0DE2003E0032003202AE003B003700D6
:1019B0004200F80081E0A90042E0EF0081E0A800C9
:1019C000300202000000000081E0A9004200F9009E
:1019D00081E0A80059EEB700C47280004822DE0002
:1019E000C4C4B20005003A00AC0DE20003003A00A6
:1019F000AE0DE20001003A0028003700BC0DE20005
:101A000008003A00BE0DE20006003A0059CEBF00C1
:101A100008E9B70014002000E46D8800BE2DEF0037
:101A20001E00370059CEBF0009E9B700BC2DEF00FA
:101A3000BE2DEF0009C9BF00804278000B60EF00A7
:101A4000054078000BE0B7008042EB00050078000D
:101A50000809B7000EA9B700140020000960EF00C4
:101A6000AC8DBF00716D80000402E8000402E90043
:101A7000030032000000D0008180D200FBFF37005D
:101A8000E4DC200084024000744880008402980056
:101A9000AC2DEC004220AF00AE2DEC00BDFF3700B6
:101AA000CE8DBF00208DB20005003200A08FB200A5
:101AB000060032009094B20007003200090037009F
:101AC00064052D00244088000800370064052D00BF
:101AD000244088000500370004F4210024408800D9
:101AE0000200370004F4210024408800AC2DEF00F0
:101AF000AE2DEF0010C0B300C8EDB70010C0B300AA
:101B0000CAEDB7004003020000000000D200370019
:101B10006C0C0200000000000C29EF003202AE0045
:101B2000200037004200F80081E0A90042E0EF0009
:101B300081E0A800300202000000000081E0A9005E
:101B40004200F90081E0A8005AEEB700D47280008C
:101B500003032000041CE1000D003E00D47280004D
:101B600093032000041CE100090039006448800050
:101B70006A20B800800278005ACEBF000000FB0047
:101B80000003B100050040000CA9B70005003700B4
:101B9000D472800094C2B20002003A000200370002
:101BA00000003700DDFF370010C0B300CDEDB700F7
:101BB0000421EF000408F8000201F90004002800E5
:101BC000240888004003020000000000A200370043
:101BD0006C0C0200000000000428EF003202AE008E
:101BE000230037004200F80081E0A90042E0EF0046
:101BF00081E0A800300202000000000081E0A9009E
:101C00004200F90081E0A8005BEEB700D4728000CA
:101C10004822DE0003032000041CE1000E003E0009
:101C2000D47280004822DE0093032000041CE100EF
:101C300009003900244080006A20B8008002780042
:101C40005BCEBF000000FB000003B10005004000B8
:101C500004A8B70006003700D47280004822DE00D6
:101C600094C2B20002003A000200370000003700C0
:101C7000DAFF370010C0B300CAEDB700400302001E
:101C80000000000074003700010024000200200062
:101C9000FD0109008058EB0081E3A9008063EF009B
:101CA00004002400241C8800F40F2000541C880029
:101CB00081E3A8009480A800CC6DEF00CB6DEF000D
:101CC000CD6DEF0010C0B300CAEDB7006200370061
:101CD0006C0C020000000000010024000200200043
:101CE000FD0109008058EB0081E3A9008063EF004B
:101CF00004002400241C8800F40F2000541C8800D9
:101D000081E3A8009480A80081E0A9004220EF00B0
:101D100081E0A80010C0B300CAEDB700C9C2A90095
:101D2000CDC2AA002003A9002023A8002003AE00F2
:101D3000FEFF3700344880004822DE006124E100C5
:101D400027003A00546E80006124E10024003A002C
:101D50005E2EEF00602EEF00047380006020E10033
:101D60001D003E0004003900F4728000F30F2000D3
:101D70000418E10018003600140020000960EF008C
:101D80005E8EBF00017380000402E8000402E900D7
:101D9000030032000000D0008180D200FBFF37003A
:101DA0000400240004004000900278004428DE0073
:101DB0005CEEB7005CEEB7003322AF00FEFF3700E9
:101DC0005CCEBF0034E2B7005E2EEC004220AF00D4
:101DD000602EEC00E0FF37000769EF00CA6DEF00EE
:101DE0003202AE001A0037004200F80081E0A9007C
:101DF00042E0EF0081E0A800300202000000000095
:101E000081E0A9004200F90081E0A8005DEEB70082
:101E1000E47280004822DE00B4C2B20003003A003F
:101E200010C0B300CAEDB70007003700A0C2B3006E
:101E30005DEEB7005D4EE200030032004003020099
:101E40000000000003003700A0C0B3005DEEB70043
:101E5000B2FF370000003700586EEF00C96DEF0089
:101E6000CF027800000006004044240020058800CE
:101E700081E0A8006004200042E7B7007005200060
:101E800042E7B70042C7A90070F02300A6A6B7003A
:101E900050002000C6A6B7006004200042E7B7004B
:101EA0007005200042E7B70042C7A80014042000D4
:101EB000243A880024032000343A88000028EF00E8
:101EC0000400280084118800044020009411880038
:101ED0003062A80024022000C41188000428EF000A
:101EE0000A29EF000C29EF000E29EF001029EF005E
:101EF0001229EF00102DEF00122DEF00142DEF002E
:101F0000162DEF00182DEF001A2DEF001C2DEF00FD
:101F10001E2DEF00A42DEF00A62DEF00A82DEF0041
:101F2000AA2DEF000768EF00AC2DEF00AE2DEF00FB
:101F3000B02DEF00B22DEF00B42DEF00B62DEF0065
:101F4000B82DEF00BA2DEF00BC2DEF00BE2DEF0035
:101F5000C02DEF00C22DEF00C42DEF00C62DEF0005
:101F60000769EF00C86DEF00C96DEF00CA6DEF00A3
:101F7000CB6DEF00CC6DEF00CD6DEF0014042000B1
:101F8000243A880024032000343A88000E00FC0024
:101F9000101020003174200082072000A3092000C7
:101FA000824878008348780043E7B7004800DE00A5
:101FB000217420006204200073052000824878000C
:101FC00083487800804878002CA3EF000FF82300A6
:101FD000F0FF230020A0B700000000000228EF005F
:101FE0000FF82300F0FF230020A0B700000000003E
:101FF0000100240002002000FE0009008058EB00D0
:102000008163EF00D0C0B30082E3B700043020004A
:10201000441C880081E3A9008063EF0004002400D1
:10202000241C8800F40F2000541C880081E3A800C1
:102030009480A80004F0290024198800044E280088
:1020400004198800E4FF2F00641988002223EF00A0
:102050002003A9002023A8002003AE00FEFF3700C4
:102060000421EF000408F8000201F9000400280030
:1020700024088800400302000000000010C0B300E4
:10208000C8EDB7000749E20005003A00246E800061
:10209000F48FB20062003A00C60DE20060003A0020
:1020A0009480A9004E2EEF00502EEF008472800025
:1020B0006020E1000F003E000400390074728000CF
:1020C000F30F20000418E1000A0036004E0EF8005D
:1020D000580EF900500EF8005A0EF9008A06020058
:1020E000000000004E2EEC004220AF00502EEC000D
:1020F000EEFF3700446E80006124E10002003A00E8
:10210000480A020000000000546E80006124E100D3
:1021100039003A00522EEF00542EEF00A4728000D6
:102120006020E10012003E0004003900947280003B
:10213000F30F20000418E1000D0036008480200019
:102140009372800004804100904278003322AF00F7
:10215000FEFF37003402F800E5FF9F003402F9006B
:10216000522EEC004220AF00542EEC00EBFF370063
:10217000522EEF00542EEF00A47280006020E10088
:102180001D003E000400390094728000F30F20000F
:102190000418E10018003600240020000960EF0058
:1021A000528EBF00A17280000402E8000402E90020
:1021B000030032000000D0008180D200FBFF370016
:1021C0004491200004004000A4002000301A780050
:1021D000301A78003322AF00FEFF37003402F800D7
:1021E000E5FF9F003402F900522EEC004220AF00C0
:1021F000542EEC00E0FF3700C86DEF00C42DEF0057
:10220000C62DEF00CA6DEF00B82DEF00BA2DEF001C
:102210009480A8000769EF00CB6DEF00CC6DEF0054
:10222000C94DE2000400320007C8BF0058EEB700F5
:102230007A0C02000000000092FF37000040FE0010
:0200000401F009
:10000000CF0000FFCF0000FF070000FF810000FFCE
:10001000270000FF5F0000FFF70000FFC30000FFA4
:00000001FF
;DSPIC33FJ64MC802
;CRC=1813  CREATED="06-Dec-22 22:14"
