:08000000260B040000000000C3
:0800340044020000000200007C
:040060002402000076
:0400A0002603000033
:100400004200F8003600F8003200F800801F780043
:10041000200020000C000900B01F780010C0B300BD
:10042000D6EEB7008480A900A00120000C000900CE
:100430004F1078004F0078003200F9003600F900C4
:100440004200F900004006004200F8003600F800C3
:100450003200F800801F7800200020000C00090006
:10046000B01F780085C0A900A00120000C00090081
:100470004F1078004F0078003200F9003600F90084
:100480004200F900004006004200F8003600F80083
:100490003200F800801F7800200020000C000900C6
:1004A000B01F7800B47680004822DE006124E100AD
:1004B00005003A002003A9002023A8002003AE0075
:1004C000FEFF370047003700806FEF00D4768000D2
:1004D0004822DE006224E100060032002003A90069
:1004E0002023A8002003AE00FEFF370000C3BF009A
:1004F00080EFB700DC4EE20007003A009480A900CC
:100500000100240002002000FF0009008058EB00D9
:1005100010C0B300DCEEB70080CFBF001A0AE300C2
:1005200009003A00DB4EE20007003A0080CFBF002E
:100530000040F800E0FF9F000040F90010C0B30049
:10054000DBEEB70027003700000082004800DE0025
:10055000047C80000024E1000700310080CFBF0050
:100560000040F800F0FF9F000040F90020C0B300F9
:10057000DBEEB7001B003700D47680004822DE0097
:100580006224E10016003A00E47680006124E10074
:100590000E003A000100240002002000FF000900C4
:1005A0008058EB0081E3A9008063EF000400240081
:1005B000241C880004102000541C880081E3A8003B
:1005C0009480A80020C0B300DCEEB7002003A9008F
:1005D0002023A8002003AE00FEFF370001003700F3
:1005E000DB6EEF008460A900A00120000C00090070
:1005F0004F1078004F0078003200F9003600F90003
:100600004200F90000400600851F780005B0240074
:1006100006020900000000008502E90003003A001C
:100620005A28EF0000002000060037003202AE001A
:10063000F7FF37003202F8005A08F900B0118000C5
:100640003222A900CF027800000006004200F80024
:100650003600F8003200F800801F780020002000EB
:100660000C000900B01F7800040302000000000025
:1006700015E9B70010C0B300D8EEB70087C0A900D5
:10068000A00120000C0009004F1078004F007800F6
:100690003200F9003600F9004200F900004006007F
:1006A000851F7800C500200003000900B51F7800F1
:1006B0000202B80003F0A600020037000383B9006D
:1006C000010037000303B8004200A900850243007F
:1006D00060844B0001F0A60002003700028BB900D5
:1006E00001003700020BB80085024B0008844B0064
:1006F0000980B000038BB90008044B0087834C00CD
:1007000087017800080178008500780004007800EF
:100710002501200003000900CF127800CF027800E5
:1007200000000600851F7800861F7800871F78006C
:100730008102780000037800640D20008180D200DF
:100740000180FD00F10FB2000142520085437800A4
:100750000770A000F70FB2000000EB008000EB0074
:100760000001EB008001EB004200A9008783D30069
:100770000683D3008381D3000281D3008180D3001C
:100780000080D3000402E900F7FF3A0005F0A6005C
:10079000050037000000EA008180EA000281EA00DB
:1007A0008381EA0000003700CF0378004F03780010
:1007B000CF02780000000600881F78002801200082
:1007C00004000900B81F78008006EB0003F0A600C3
:1007D000080037000DF0A0008381EA000281EA00E2
:1007E0008180EA000000EA00E080480060014900E2
:1007F000E081490007F0A600080037000DF0A200D4
:100800008783EA000683EA008582EA000402EA00A0
:10081000E0824A0060034B00E0834B008D1F7800AC
:100820000006EB008006EB000024B800881F78006B
:100830000125B800090545000B80B0000224B8006E
:100840008B0544000C864C00002CB8000A054400BF
:100850008B854C000C80B000012CB8008B05440047
:100860000C864C000034B8008B0544000C864C000C
:10087000003CB800880478004F0478000800780035
:100880000C8644000324B8000C064400022CB80077
:100890000C0644000134B8000C0644008A007800BD
:1008A0000B0178008C017800CF0678000DF0A600CF
:1008B000070037008381EA000281EA008180EA00B4
:1008C0000000EA00E080480060014900E081490042
:1008D000A8012000040009004F1478004F0478009C
:1008E00000000600851F7800C500200003000900F5
:1008F000B51F7800000278008102780002037800BA
:10090000830378000000EB008000EB000001EB00A7
:100910008001EB000800A10007F0A60005003700E9
:100920000600A0000402EA008582EA000683EA00CD
:100930008783EA0085046A0002003A0087046B009E
:1009400014003200610D20000270A700090037007A
:100950004200A9000482D2008582D2000683D20020
:100960008783D2000080D2000281D2008100E9009A
:10097000F5FF3A000180FD004200A9008180D3000C
:1009800001F0A1000270A100814069000600A700EB
:1009900001F0A0002501200003000900CF1278001B
:1009A000CF02780000000600000178008101780085
:1009B000014078000080FD0000F0A0008180D2009E
:1009C0000180FD008180FB00E4082000814052008E
:1009D000060032000000E000040032004200A900DE
:1009E0000080D3008100E900FAFF3A0003F0A6007E
:1009F000020037000000EA00000037000000060097
:100A0000851F7800861F7800871F7800881F780070
:100A1000640020000960EF00620FF800660FF90023
:100A2000640FF800680FF9000402E8000402E9000E
:100A300003003200662FD40068AFD600FBFF3700FA
:100A400021E32000020020003F0009008058EB0055
:100A50006A2FEF006C2FEF00647B80006020E100C4
:100A600021003E0004003900547B80000304200074
:100A70000418E1001C003600140020000960EF009B
:100A80006A8FBF00617B80000402E8000402E90075
:100A9000030032000000D0008180D200FBFF37004D
:100AA00024E3200084024000417B8000668FBF0069
:100AB000662FEC004220AF00682FEC000003BE0060
:100AC0000400240004004300000278001440780071
:100AD0000160EF00800A78006A2FEC004220AF002E
:100AE0006C2FEC00DCFF3700640020000960EF0091
:100AF000620FF800660FF900640FF800680FF90044
:100B00000402E8000402E90003003200662FD4006A
:100B100068AFD600FBFF3700CA0EF800C60EF9001A
:100B2000CC0EF800C80EF9001E2AEF00202AEF00B4
:100B3000C22EEF00C42EEF006A2FEF006C2FEF00E3
:100B4000647B80006020E100C2003E0004003900A8
:100B5000547B8000030420000418E100BD0036002F
:100B6000247680006020E10041003E00040039004E
:100B700014768000F30320000418E1003C003600E6
:100B8000140020000960EF00C68EBF00417680008F
:100B90000402E8000402E900030032000000D00073
:100BA0008180D200FBFF370024E3200004004000D6
:100BB0000002780014007800800278000003EB0047
:100BC00005F0A7000083EB00140020000960EF008F
:100BD000C28EBF00217680000402E8000402E90012
:100BE000030032000000D0008180D200FBFF3700FC
:100BF000E4ED2000040040000002780014007800BA
:100C00008000EB0000F0A7008080EB00000178007E
:100C1000810178000500780086007800500302000A
:100C2000000000001E2AB40001007800208AB400F1
:100C300020AAB70034768000F483B20005003A00A1
:100C4000C80EE20003003A00C62EEF00C82EEF00E7
:100C500003003700C62EEC004220AF00C82EEC0087
:100C6000C22EEC004220AF00C42EEC00BCFF3700C7
:100C7000417B8000668FBF00662FEC004220AF00F2
:100C8000682FEC0080027800010378006491200056
:100C900084834200140020000960EF006A8FBF00C7
:100CA000617B80000402E8000402E90003003200D6
:100CB0000000D0008180D200FBFF370024E3200039
:100CC00004004000904B7800B47680004822DE009B
:100CD0006124E10010003A00240020000960EF00C8
:100CE000668FBF00417B80000402E8000402E90037
:100CF000030032000000D0008180D200FBFF3700EB
:100D000024A2200084024000E4A12000B41A78004C
:100D1000B41A78004B0037001E8ABF0001518000D2
:100D20008001EB0001F0A7008081EB000301780057
:100D30005471800084025000647180000483580064
:100D40007471800084035900847180000484590008
:100D5000BA8EBF00E175800092030200000000001F
:100D6000851F7800861F7800871F780000027800B2
:100D70000500780081027800860078000203780080
:100D8000070178008303780088017800DC03020003
:100D900000000000CF0378004F037800CF027800F6
:100DA0008002780001037800820378000304780051
:100DB000F40720000480420060034B0086007800A6
:100DC000E0834B000701780060044C008801780044
:100DD0007204020000000000B2AEB700A1758800E6
:100DE000B28EBF00A1758000D40402000000000094
:100DF00014E9B700240020000960EF00668FBF00EF
:100E0000417B80000402E8000402E9000300320094
:100E10000000D0008180D200FBFF370024A2200018
:100E2000840240001489BF008042980000C0B300D3
:100E30009042980000C0B300A042980000C0B300E8
:100E4000B04298006A2FEC004220AF006C2FEC00FB
:100E50003BFF37004F047800CF0378004F03780042
:100E6000CF02780000000600851F7800861F7800FA
:100E700000027800810278000000EB008000EB00A7
:100E80000600A10005F0A600060037000600A0003D
:100E90000402EA00020032008582EA000100370005
:100EA0008502EA0085017200130032000001EB00A8
:100EB000610B20000270A700070037004200A90064
:100EC0000482D2008582D2000080D2000281D2004A
:100ED0008100E900F7FF3A000180FD004200A9000F
:100EE0008180D30001F0A1000270A100814069005F
:100EF0000600A70001F0A0004F037800CF027800A1
:100F000000000600851F7800C500200004000900CD
:100F1000B51F78008004EB0083846800010378002B
:100F20008002780003047800820378008180D20078
:100F30000180FD008180FB000100E0004E003200D6
:100F40008381D2000380FD008381FB000300E00069
:100F5000490032000000EB0003C0500003003900DC
:100F6000F047B00044003100030037001048B100E2
:100F70004100390040003200850078000601780009
:100F80000270A000F20FB200F80FB2000870A000CB
:100F90009A0120008001EB000002EB0087805000E6
:100FA00008015900020033000400310004003A0037
:100FB0008780400008014900010037000400A000BC
:100FC0000A05E900070032004200A9008180D20032
:100FD0000281D2004200A9000482D2008381D200A3
:100FE000EEFF37000005EB000380A700010037008B
:100FF000060037004200A9008381D3000370A100DE
:101000000482D3000A85D200020037000000E90004
:10101000190032000AF0A700050039008180D200D3
:101020000281D20087805000080159000900390070
:101030000402E80007003A008301E80005003A00D6
:101040000000E8000C003200020037000000E90058
:10105000090032000080FD008080D30001F0A00074
:1010600009F0A60001F0A1000370A10081C0690091
:101070000400780003003700000020000100200079
:10108000000037004501200004000900CF1278005D
:10109000CF02780000000600881F78002801200099
:1010A00004000900B81F7800090020004300AF00C9
:1010B00019002000891F78000004EB008004EB0079
:1010C0000005EB008005EB000006EB008006EB005E
:1010D000E8002000090020001000FA000C377C0016
:1010E0000884E900FDFF3B0005046A0002003A00A5
:1010F00007046B00480032000004EB008006EB00A0
:101100008D1F780003F0A6000A003700CF06780094
:101110000DF0A0008D1F78008381EA000281EA00B3
:101120008180EA000000EA00E08048006001490098
:10113000E081490007F0A6000A003700CF067800DA
:101140000DF0A2008D1F78008783EA000683EA0075
:101150008582EA000402EA00E0824A0060034B0054
:10116000E0834B000D0420004200A9000080D20063
:101170008180D2000281D2008381D2000884D20013
:101180008984D2000A85D2008B85D2000758E100FD
:1011900005003A0006D0E10003003A0005C8E1006E
:1011A00001003A0004C0E1000500390004045400C5
:1011B00085845C0006055D0087855D004200A8000F
:1011C000080F7800190798002A0798003B07980035
:1011D0004E049000DE0490006E059000FE05900025
:1011E0000884D2008984D2000A85D2008B85D2007F
:1011F00048079800590798006A0798007B079800ED
:101200001E0478009E0490002E059000BE059000FC
:101210008D06E900D4FF3A004E009000DE009000F9
:101220006E019000FE019000CF0678000DF0A60040
:10123000070037008381EA000281EA008180EA002A
:101240000000EA00E080480060014900E0814900B8
:101250000080FA0000003700CF0478000900E000A9
:101260000400320008007800890078000A01780044
:101270008B017800A8012000040009004F147800B9
:101280004F04780000000600851F7800861F780054
:10129000871F7800A47680006020E100C5003E0032
:1012A000040039009476800083BB20000418E1001C
:1012B000C0003600220BF800220EF900240BF800C3
:1012C000240EF900220BF800260EF900240BF8007A
:1012D000280EF9000002820018EAB700196AEF0030
:1012E00004042000147B8800642FEF00247B80001E
:1012F0006020E10083003E0004003900147B800080
:10130000031020000418E1007E00360024002000B5
:101310000960EF00628FBF00217B80000402E800BB
:101320000402E900030032000000D0008180D200F6
:10133000FBFF370024A220000400400000027800D8
:1013400003002000B4197800B419780044718000BB
:101350000120E1001300350003003C0034718000DF
:101360000020E1000F003600240020000960EF009B
:10137000628FBF00217B80000402E8000402E900C4
:10138000030032000000D0008180D200FBFF370054
:1013900024A220000400400064E22000301A7800FB
:1013A000301A7800240020000960EF00628FBF002F
:1013B000217B80000402E8000402E90003003200FF
:1013C0000000D0008180D200FBFF370024A2200063
:1013D000040040000002780003002000B4197800E7
:1013E000B4197800247180000120E10013003C0052
:1013F00003003500147180000020E1000F0031006F
:10140000240020000960EF00628FBF00217B800074
:101410000402E8000402E900030032000000D000EA
:101420008180D200FBFF370024A22000040040008E
:1014300024E22000301A7800301A780004002400DA
:10144000137B800004804100000278001440780083
:101450000160EF00C45080000020E100070036006A
:1014600004002400137B800004804100C4508000ED
:1014700000429000C4508800196AEF002400200048
:101480000960EF00628FBF00217B80000402E8004A
:101490000402E900030032000000D0008180D20085
:1014A000FBFF370024A22000040040000002780067
:1014B00003002000B4197800B41978008001EB0013
:1014C00001F0A7008081EB00030178002A2EB40010
:1014D000010078002C8EB4002CAEB700747180002F
:1014E000040049002EAEB7008471800004804900DA
:1014F00030AEB700622FEC004220AF00642FEC004A
:101500007AFF3700147180003371800003005200AD
:10151000247180004371800083005A003407020068
:1015200000000000B6AEB700C175880000002000C2
:10153000F1372400B2758000C37580008207020075
:1015400000000000BAAEB700E17588004300A900B2
:101550002A8EBF00617180007271800083718000EB
:10156000940820000500200006002000070020004D
:101570004C080200000000002AAEB700617188002C
:101580007271880083718800180AF8001A0AF9003D
:1015900021A2200002002000FF0009008058EB007B
:1015A0000100240002002000FF0009008058EB0029
:1015B0001F0037000002820018EAB700196AEF0026
:1015C00014042000347B8800347B8000031020004A
:1015D0000418E1001600340004002400337B80006E
:1015E0000480410000027800144078000160EF00A0
:1015F000C45080000020E1000700360004002400F1
:10160000337B800004804100C45080000042900081
:10161000C4508800196AEF00180AF8001A0AF90085
:10162000D22EEF00D42EEF00662FEC00E6FF37003D
:10163000D76EEF00CA2EEF00CC2EEF00CF0378005C
:101640004F037800CF0278000000060040442400D9
:101650002005880081E0A8006004200042E7B70070
:101660007005200042E7B70042C7A90070F02300D0
:10167000A6A6B70050002000C6A6B7006004200050
:1016800042E7B7007005200042E7B70042C7A80054
:1016900014042000243A8800F4032000343A88001F
:1016A0005A28EF000400280084118800044020001C
:1016B000941188003062A800A4022000C4118800A0
:1016C0001229EF00182AEF001A2AEF001C2AEF0057
:1016D0001E2AEF00202AEF00222EEF00242EEF001A
:1016E000262EEF00282EEF002A2EEF002C2EEF00E2
:1016F0002E2EEF00302EEF00B62EEF00B82EEF00AA
:10170000BA2EEF00BC2EEF00BE2EEF00C02EEF0071
:10171000C22EEF00C42EEF00C62EEF00C82EEF0041
:10172000CA2EEF00CC2EEF00CE2EEF00D02EEF0011
:10173000D22EEF00D42EEF00D66EEF00D76EEF0062
:10174000D86EEF00D96EEF0010C0B300DAEEB7002C
:10175000DB6EEF00DC6EEF002CA3EF000FF8230030
:10176000F0FF230020A0B700000000007700370042
:10177000C00608005C0000004BF03F005C0A580007
:10178000F63B8F0000C03C008B28AC003CBEF6004E
:101790003FD2D50044168C0015D7BF0069005A000F
:1017A0002E1B8700993F9A005FAD4B0091E401002A
:1017B000C05D11002F92E40081FB3F0038DA9100F8
:1017C000809DC500E0BF6F0012C0B400C309AB002C
:1017D0003F6BC100034EC100B545BF00F740050097
:1017E000FF005C00EF3FF300A3E2F700D7FF01002A
:1017F00040C0B400FF053C0058FC3F003BD3C00094
:10180000B5BA8C00E23F3900D3C73D004179B20040
:101810003F870D003C50D000AF623F00304B8D0041
:10182000A282AA0004400900A0404A0005760300F5
:1018300040EC9E003788A60044F03F008F128D00D8
:10184000299A5B00C73F0E00E0807C00A1D886008B
:101850003F294B00FB95C200371A3F000000800073
:10186000800EDE00F4FFFC00FF05000011001F00E9
:101870000030000041004F000056000053004000BF
:10188000001A0000E1FF9600FF3EFF00E4FE920018
:10189000FE58FE0046FE6B00FED4FE0088FF8B0063
:1018A00000D601005E030F0005D006008608120076
:1018B0000A580B00410CB9000CB90C00410C58003F
:1018C0000B120A008608D000060F05005E03D60042
:1018D000018B000088FFD400FE6BFE0046FE58001E
:1018E000FE92FE00E4FE3E00FF96FF00E1FF1A00BC
:1018F0000040000053005600004F0000410030003F
:10190000001F00001100050000FCFF00F4FF0000B4
:10191000000000000201E8006110E10004003A004C
:101920009101BA003182BA0006C0BF000000060073
:101930006210E10002003A0007C0BF00000006008C
:1019400008C0BF000001EB000000060006002000F8
:10195000000020009001880080BB200080007800FB
:101960000001EB008A0C0200000000000BE0B70051
:101970008A0C0200000000000AE0B7000500E00049
:101980001900320005F0A600070037008A0C02009B
:10199000000000000DE0B7008A0C0200000000000B
:1019A0000CE0B70005F0A10005E0A6000800370034
:1019B00005E0A1008502E9008A0C02000000000099
:1019C0008043780005800900075B7800E5FF370059
:1019D0008A0C020000000000005B78008502E9002C
:1019E000FBFF3A00DFFF3700010024000200200067
:1019F000FF0009008058EB000110240012062000AF
:101A000012C6B300FF0009008258780000C4B3007A
:101A100081E3B700D0C0B30082E3B70004302000F8
:101A2000441C880081E3A9008063EF0004002400C7
:101A3000241C880004102000541C880081E3A800A6
:101A400000C6B3008DE3B700F0C1B3008EE3B7006A
:101A500044232000A41C88009480A80095C0A800FE
:101A6000E4FF2F00641988002223EF0004F029000E
:101A700024198800044E2800041988002003A900B6
:101A80002023A8002003AE00FEFF37000421EF0052
:101A9000047122001408880004002800240888002B
:101AA0009460A80081E0A9004220EF0081E0A80036
:101AB00010C0B300D7EEB700D64EE20026003200C9
:101AC0009480A9005E2FEF00602FEF00047B800060
:101AD0006020E1000E003E0003003900F47A80002F
:101AE0006420E1000A0031005E0FF800620FF90087
:101AF000600FF800640FF90000050200000000000C
:101B00005E2FEC004220AF00602FEC00EFFF3700AB
:101B1000B47680004822DE006124E10003003A0030
:101B20004409020000000000000037008DE3A90016
:101B300010C0B3008CE3B70004002400841C8800AC
:101B400004102000B41C88008DE3A8008FE3A800D7
:101B50009480A800D66EEF00D7FF3700FFFF370054
:0200000401F009
:10000000CF0000FFCF0000FF070000FF810000FFCE
:10001000270000FF5F0000FFF00000FF430000FF2B
:00000001FF
;DSPIC33FJ64MC802
;CRC=615C  CREATED="23-Oct-22 19:03"
